:10100000A2EF14F00009024300020100803209043B
:101010000000010202010005240010010424020264
:1010200005240600010524010001070582030800CC
:101030000209040100020A0000000705030208007B
:10104000000705810240000036034D00690063007F
:1010500072006F0063006800690070002000540097
:101060006500630068006E006F006C006F00670031
:1010700079002C00200049006E0063002E00120150
:10108000000202000008D8040A0000010102000169
:101090000E03550053004200740069006E00040303
:0310A00009040040
:1027DA000003F8EC13F0840ED56E840C40C001F0AF
:1027EA0041C002F01200D66AD76A3E6A3F6A406A5E
:1027FA00416A1200016E01C0C9FFC7A0FED7C950C5
:10280A0012008B9CB00EFFEC13F0FF0EFFEC13F0DE
:10281A00026E8B8C025012008B9CA00EFFEC13F000
:10282A00FF0EFFEC13F0026E8B8C02501200036E47
:10283A008B9C020EFFEC13F00350FFEC13F00250D6
:10284A00FFEC13F08B8C1200026E8B9C030EFFECD4
:10285A0013F00250FFEC13F0FF0EFFEC13F0036EBF
:10286A008B8C03501200066E07D00650D96EDA6AB6
:10287A00DF5051EC15F0062A0650D96EDA6ADF509D
:10288A00F4E11200066E06C002F02A0E1CEC14F0E7
:10289A0004C002F0290E1CEC14F005C002F0280E48
:1028AA001CEF14F0046E8B9C050EFFEC13F0045021
:1028BA00FFEC13F00250FFEC13F00350FFEC13F09F
:1028CA008B8C12004950016E026AD890013602368A
:1028DA00D89001360236280E0124D96E020E022043
:1028EA00DA6E0201DFAE010C000C4850016E026A7A
:1028FA00D89001360236D89001360236100E0124DD
:10290A00D96E020E0220DA6E0201DFAE010C000C53
:10291A00016AF66A030EF76E0800F550120A0BE117
:10292A00010EF66E030EF76EF86A0800F550030AF8
:10293A0002E1010E016E015012000101EE6B00EE80
:10294A0034F01E0EEE6AE806FDE1DB0EF66E270E87
:10295A00F76E000EF86E0900F5CF52F0000EF86E11
:10296A00000185EF18F00C500A5C0D500B5804E278
:10297A000AC00CF00BC00DF00CC046F00DC047F0B9
:10298A0007C03BF008C03CF009C03DF08CEC16F0E3
:10299A000C5012003E50D65C016E3F50D758026E62
:1029AA00780E015C010E0258D8A01200770E3E265E
:1029BA00010E3F22404A412A610E405CEA0E41580C
:1029CA00D8A01200406A416A1200066E06380F0B40
:1029DA00076E090E076402D0370E01D0300E0726A3
:1029EA00075051EC15F006500F0B076E090E0764DD
:1029FA0002D0370E01D0300E0726075051EF15F0DE
:102A0A000B500D0FD96EDA6ADF6A19D007500F0B17
:102A1A00216E090E216402D0370E01D0300E212614
:102A2A000B500D0FD96EDA6A21C0DFFF040E0C6E4F
:102A3A00D8900A320932083207320C2EF9D70B061F
:102A4A000B28E4E10D0E38EF14F0076E071C026E36
:102A5A00200E1CEC14F0041CE00B026E210E1CEC80
:102A6A0014F0026A220E1CEC14F0026A230E1CEC0B
:102A7A0014F0051C026E240E1CEC14F0061CE00B6C
:102A8A00026E250E1CEC14F0026A260E1CEC14F0E1
:102A9A00026A270E1CEF14F0056E4850036E046A92
:102AAA00D89003360436D89003360436100E032421
:102ABA00D96E020E0420DA6E0201DFBE12004850FF
:102ACA00400D600E036E020E046EF3500326F4509E
:102ADA0004224E500324D96E000E0420DA6E05C07B
:102AEA00DFFF4C6A4E2A400E4E18D8B47EEC15F021
:102AFA0012004250431001E112004E5001E112004F
:102B0A004850016E026AD89001360236D8900136D2
:102B1A000236100E0124D96E020E0220DA6E02016C
:102B2A00DFBE12004850016E026AD89001360236A2
:102B3A00D89001360236110E0124D96E020E0220F7
:102B4A00DA6E4EC0DFFF4E6A485005E1C80E106FBC
:102B5A00010E486E010C880E146F486A1200076E47
:102B6A0007C002F0000E1CEC14F00450E00B026ED9
:102B7A00010E1CEC14F007C002F0040E1CEC14F059
:102B8A000450E00B0809026E050E1CEC14F005C097
:102B9A0002F0080E1CEC14F00650E00B026E090E4F
:102BAA001CEC14F005C002F0100E1CEC14F00650D8
:102BBA00E00B0809026E110E1CEC14F0026A140EE6
:102BCA001CEC14F0026A150E1CEC14F0026A180EC2
:102BDA001CEC14F0026A190E1CEF14F0800E0201AC
:102BEA00006F080E016F300E026F020E036F046B46
:102BFA00080E056F380E066F020E076F106B400E37
:102C0A00116F600E126F020E136F400E146F156F64
:102C1A00A00E166F020E176F206B080E216F400E62
:102C2A00226F020E236F400E246F080E256F480E86
:102C3A00266F020E276F800E286F080E296F500E1E
:102C4A002A6F020E2B6F800E2C6F080E2D6F580EF6
:102C5A002E6F020E2F6F160E0F01536F1A0E546F3E
:102C6A00556F1C0E566F170E616E080E646E080CB7
:102C7A004950080D500E016E020E026EF3500126E5
:102C8A00F450022250500124D96E000E0220DA6E4E
:102C9A00DF50046E502A4950016E026AD8900136FC
:102CAA000236D89001360236290E0124D96E020E58
:102CBA000220DA6E5050DE1828E14950016E026A8D
:102CCA00D89001360236D89001360236290E0124F0
:102CDA00D96E020E0220DA6E080EDF6E4950016EBE
:102CEA00026AD89001360236D89001360236280E8A
:102CFA000124D96E020E0220DA6E800EDF6E506A4F
:102D0A004950010ED8A4000E496E045012004650D4
:102D1A00471001E1120046C004F047C005F0055013
:102D2A0003E1090E045C03E3056A080E046E066AF1
:102D3A002DD08E0E3B1813E1100E3C1810E1000E38
:102D4A003D180DE18DEC14F0000909E0380E062457
:102D5A00D96EDA6A020EDA22030EDF6E0FD03BC09A
:102D6A00F6FF3CC0F7FF3DC0F8FF380E0624D96EC7
:102D7A00DA6A020EDA220800F5CFDFFF3B2A000EDC
:102D8A003C223D224606D8A04706062A0650026E75
:102D9A00036A0450025C05500358CBE304C005F2F1
:102DAA00020104AD03D0880E046F880CC80E046FAC
:102DBA00C80C400EC76E210EC66EC950046A9388AD
:102DCA00949C949E939C8B8C043EFED78B9CC00E45
:102DDA00FFEC13F08B8C043EFED7850E026E0F0EAD
:102DEA001CEC14F0040E026E600E1CEC14F0026A65
:102DFA00700E1CEC14F0026A200E1CEC14F0026A2D
:102E0A00210E1CEC14F0026A220E1CEC14F0026A69
:102E1A00230E1CEC14F0026A240E1CEC14F0026A55
:102E2A00250E1CEC14F0026A260E1CEC14F0026A41
:102E3A00270E1CEC14F0026A010E1CEC14F0080EAA
:102E4A00026E050E1CEC14F0026A090E1CEC14F05A
:102E5A00080E026E110E1CEC14F0030E026E2B0EFD
:102E6A001CEF14F0116E55D07E0E076E0750D8A4D1
:102E7A00100E086E0850D8A4000E096E38D0050E40
:102E8A00076E0750D8A4100E086E0850D8A4000E7A
:102E9A00096E0B6A430E2DD09E0E076E0750D8A4FA
:102EAA00100E086E0850D8A4000E096E0B6A040EA4
:102EBA0020D0480E076E0750D8A4100E086E08508E
:102ECA00D8A4000E096E0B6A360E13D0900E076E48
:102EDA000750D8A4100E086E0850D8A4000E096E28
:102EEA000B6A0E0E06D0076A030E086E096A0B6A91
:102EFA00120E0A6E0FC00CF010C00DF0B8EF14F0ED
:102F0A000E50CAE0010AD5E0030AE0E0010AEBE04C
:102F1A00000C1150010AA8E0030AB1E0010AF0E02E
:102F2A00000C0450D96EDA6ADE6ADE6ADE6ADD6A8D
:102F3A005CD001C0D9FF02C0DAFFDF5001E1000C0A
:102F4A000450D96EDA6A040ED890DE36DE36DE36E2
:102F5A00DD36D906D906E82EF7D701C0D9FF02C057
:102F6A00DAFF2F0EDF6409D001C0D9FF02C0DAFFF1
:102F7A003A0EDF6002D0D00E1FD001C0D9FF02C0C6
:102F8A00DAFF400EDF6409D001C0D9FF02C0DAFFC0
:102F9A00470EDF6002D0C90E0FD001C0D9FF02C0B0
:102FAA00DAFF600EDF64000C01C0D9FF02C0DAFF4D
:102FBA00670EDF60000CA90E056E066801C0D9FF16
:102FCA0002C0DAFFDF50076E086A0550072606506E
:102FDA0008220450D96EDA6A0750DE260850DE222B
:102FEA00000EDE22DE22014A022A03060328A1E19C
:102FFA00010C010E176E13C0D9FF14C0DAFF720E4E
:10300A00DE1808E013C0D9FF14C0DAFF520EDE182A
:10301A0001E0176A17B002D0239001D0238013C0B1
:10302A00D9FF14C0DAFF5A0EDF6003D02382080EDC
:10303A0002D02392030E196E1328016E000E14207B
:10304A00026E19C003F01B0E046E96EC17F000090D
:10305A0001E1000C1BC01FF01CC020F01DC021F0B4
:10306A001EC022F019501324156E000E1420166E7D
:10307A001528016E000E1620026E010E036E1B0E3D
:10308A00046E96EC17F0000901E1000C1BC024F055
:10309A0023B033D024C018F0080E186401D0186E7B
:1030AA001A6A28D01A50020D13C015F014C016F06F
:1030BA00F3501526F450162219501526000E162222
:1030CA00020E1524016E000E1620026E020E036E09
:1030DA001B0E046E96EC17F0000901E1000C1AC0F1
:1030EA0015F0060E152615501F0FD96EDA6A1BC089
:1030FA00DFFF1A2A18501A5CD5E31F0E0DEF1BF0DA
:10310A00DEEC16F0300ED36E7E6A7F6A939A8A9A44
:10311A00EEEC13F0F3EC15F00101EC6BEA6BE86BE3
:10312A00E96BED6BD6CFE4F1D7CFE5F1E66B31EC85
:10313A0019F0CFEC14F005D00101E829070BE86F6C
:10314A00EA2B0101EE512AE082B428D0080EEA6186
:10315A0025D0E851100D640EF324036E010EF420FD
:10316A00046E25EC1CF0000919E0E6D7E951100DB0
:10317A00640EF324016E010EF420026EED0E036E4E
:10318A00010E046E03EC1AF051EC15F00101ED2961
:10319A0005E1ED6BE929070BE96FEA077AEC14F010
:1031AA0000092AE00101EA5127E0E0D73DEC16F0D8
:1031BA000101EB6F0D0EEB1910E1000EEC25D96E33
:1031CA00DA6A010EDA22DF6A000E2F6E010E306E05
:1031DA007CEC1DF00101EC6B0FD00A0EEB190CE030
:1031EA00000EEC25D96EDA6A010EDA22EBC1DFFF96
:1031FA00630EEC6101D0EC2B67EC14F0000903E0DC
:10320A000101ED51D3E00101E451D65C326EE55182
:10321A00D758336E7D0E325C920E335805E37C0E1E
:10322A00E427920EE523E62B010EE76FE6C132F0A2
:10323A000F0E321603E0EE5101E1E76BE7B102D05F
:10324A008A9A01D08A8A80B672D7646AFA0E00F026
:10325A00E82EFDD7FF006BD74C2A4C04126EC80E1D
:10326A00126402D07EEC15F062A61200635001E0EF
:10327A00B8D002010041E8423F0B0F0B0D0A01E0F2
:10328A0096D0046B046B30C212F0600E121643E043
:10329A0057D032C20EF03751126E36510F6E12C02D
:1032AA0010F0335137EC17F0000901E094D0020115
:1032BA00056BCC0E04D032C251F008D0C80E046F90
:1032CA008AD032C24FF0436A010E426E056BF6D7BE
:1032DA004FC038F2010E47D0386BFCD730511F0B64
:1032EA00020A05E144C038F245C039F202D0386B0F
:1032FA00396B020E38D030511F0B020AE7E1325106
:10330A00E5E1010E446EE2D730511F0B020A01E1DA
:10331A00446A056BD3D73151E1E0010AF5E0020AAC
:10332A00EAE0060AC8E0030AB4E00E0AD1E0010A9C
:10333A00C8E0030AD1E01B0AECE0030AD8E0B7D7D9
:10334A003051600B200A28E046D0146A380E142443
:10335A00D96EDA6A020EDA22DF6A142A070E1464B8
:10336A00F5D7080E17D0056FA9D7010E4B6EAED749
:10337A00156A1550340FD96EDA6A380E1524E16EC3
:10338A00E26A020EE222DFCFE7FF152A060E156473
:10339A00F0D7070E0201E7D73151BBE0010AD5E0A9
:1033AA00210AE3E0010AE4E0030AB3E080D74B50C4
:1033BA0012E0166A300E1624D96EDA6A020EDA2282
:1033CA001650340FE16EE26ADFCFE7FF162A060EC7
:1033DA001664F0D74B6A080E0201016F800E006F67
:1033EA000AD0040E631807E1515003E051C05CFF94
:1033FA00516A8CEC16F064986296120003C0D9FFE9
:10340A0004C0DAFFDF500E6E03C0D9FF04C0DAFF32
:10341A00DF5023E120EE04F00150D9260250DA22CF
:10342A00DFA20ED0010E0E6E20EE04F00150D92656
:10343A000250DA22DFA002D0520E0DD0540E0BD069
:10344A00060E0E6E20EE04F00150D9260250DA2242
:10345A00720EDFA0740E0F6ED3D003C0D9FF04C062
:10346A00DAFF090EDF6027D003C0D9FF04C0DAFFF4
:10347A00DF50056E05040B6E01C009F002C00AF0A8
:10348A00D8900B30095C056E000E0A58066E030EC2
:10349A000524D96E000E0620DA6EDF500F6E0BB0CF
:1034AA00A6D00F3A0F0E0F16A2D0370E01D0300E4B
:1034BA000F260E2AA5D003C0D9FF04C0DAFF0A0ED0
:1034CA00DF6024D020EE05F00150D9260250DA221E
:1034DA00DF500F6E0F0E0F16090E0F6402D0370E53
:1034EA0001D0300E0F2620EE05F00150D9260250E9
:1034FA00DA22DF5008E020EE04F00150D92602500B
:10350A00DA22DFA0D6D71A0E0E6E7AD003C0D9FF00
:10351A0004C0DAFF1A0EDF603ED003C0D9FF04C030
:10352A00DAFFDF50F60F0C6ED8900C300124056ECE
:10353A00000E0220066E060E0524D96E000E062025
:10354A00DA6EDF500F6E0CB003D00F3A0F0E0F1663
:10355A000F0E0F16090E0F6402D0370E01D0300E6F
:10356A000F260E2A20EE05F00150D9260250DA2243
:10357A00DF50020DF60E056E06680E50076E086AD9
:10358A000550072606500822F350071839E1F4506F
:10359A000818B9E035D04D5030E003C0D9FF04C057
:1035AA00DAFF1E0EDF6029D003C0D9FF04C0DAFF9C
:1035BA00DF50E60F0D6E020E0D600FD020EE0EF0FA
:1035CA000150D9260250DA22DECF05F0DDCF06F00F
:1035DA0006C005F0066A055007D020EE0EF001502D
:1035EA00D9260250DA22DF500F6E0DA05AD70F0EDD
:1035FA000F16090E0F645BD758D70D0E0F6E0E68A3
:10360A0003C0D9FF04C0DAFF0EC0DFFF0F5012005B
:10361A00126E11EC14F00D6E1250D96EDA6A050EA4
:10362A00D926DF50106E080E106428D0106E26D0EE
:10363A00500E0F6E040E0E6E030E1CD0400E0F6E4F
:10364A00020E0E6E32D0300E0F6E0E6A2ED0500E53
:10365A000F6E040E0E6E52500FE1030E026E036ED1
:10366A00400E57EC14F0030E026E036E300E57EC48
:10367A0014F0020E526E19D0520617D00D50540B88
:10368A00056E066A0650D8A4000C0550D1E0040A5B
:10369A00DEE0140AD8E0040ADAE0540ACFE0040AA9
:1036AA00CDE0140AD8A4000CCED78B9C0E5040094A
:1036BA00FFEC13F01250D96EDA6A040ED926DFA293
:1036CA0063D01250D96EDA6ADECF05F0DECF06F08B
:1036DA00DECF07F0DECF08F0160E05D0D8900832FC
:1036EA00073206320532E82EF9D70550FFEC13F0FF
:1036FA001250D96EDA6ADECF05F0DECF06F0DECFE1
:10370A0007F0DECF08F0110E05D0D8900832073244
:10371A0006320532E82EF9D7030E05161250D96E75
:10372A00DA6ADECF09F0DECF0AF0DECF0BF0DECFA9
:10373A000CF00E0E05D0D8900C320B320A32093238
:10374A00E82EF9D70950E00B05100809FFEC13F031
:10375A001250D96EDA6ADECF05F0DECF06F0DECF80
:10376A0007F0DECF08F006C005F007C006F008C073
:10377A0007F0086A0550FFEC13F01250D96EDA6AA6
:10378A00DF50FFEC13F02BD01250D96EDA6ADECF7D
:10379A0005F0DECF06F0DECF07F0DECF08F0040E2C
:1037AA0005D0D8900832073206320532E82EF9D70A
:1037BA000550FFEC13F01250D96EDA6ADF50056E2D
:1037CA00050E066ED8900536062EFCD70550FFEC7E
:1037DA0013F0000EFFEC13F0000EFFEC13F0125082
:1037EA00D96EDA6A040ED926DFA00AD01250D96E31
:1037FA00DA6A050ED926DF504009FFEC13F017D01C
:10380A001250D96EDA6A050ED926DF50FFEC13F092
:10381A00116A0AD012501124D96EDA6A060ED92614
:10382A00DF50FFEC13F0112A1050115CF3E38B8C7C
:10383A0000F052500809026E0F501CEC14F0010CF3
:10384A0006EC14F0136E13C005F0C00E05160BE05B
:10385A004A5004E00B6A040E0A6E02D00A6A0B6A26
:10386A000AC00CF00BD013AE05D0040E0C6E010E7C
:10387A004A6E04D013AC000C0C6A4A6AF3EC13F0DB
:10388A0020EE0EF00350D9260450DA2201C0DEFFE2
:10389A0002C0DDFF13C005F0D8900532D89005327A
:1038AA00D8900532010E051620EE04F00350D926F1
:1038BA000450DA22DF500518FE0B0518DF6E13C01C
:1038CA0005F0053A0F0E0516010E051620EE04F056
:1038DA000350D9260450DA220546DF500518FD0B9D
:1038EA000518DF6E8B9C0C509009FFEC13F020EE4C
:1038FA0004F00350D9260450DA22DFA27FD0FF0E4B
:10390A00FFEC13F0056E05C006F0076A086A096A3B
:10391A00150ED8900636073608360936E82EF9D736
:10392A0003C0D9FF04C0DAFF06C0DEFF07C0DEFF0E
:10393A0008C0DEFF09C0DEFFFF0EFFEC13F00D6EBC
:10394A000E6A0F6A106AE00E0D14056E066A076A9F
:10395A00086A0D0ED8900536063607360836E82E60
:10396A00F9D703C0D9FF04C0DAFF0550DE120650AA
:10397A00DE120750DE120850DE12030E0D14056E19
:10398A00066A076A086A06C008F005C007F0066AF0
:10399A00056A03C0D9FF04C0DAFF0550DE120650DB
:1039AA00DE120750DE120850DE12FF0EFFEC13F093
:1039BA00056E05C006F0076A086A096A08C009F0B8
:1039CA0007C008F006C007F0066A03C0D9FF04C0A2
:1039DA00DAFF0650DE120750DE120850DE120950D6
:1039EA00DE12FF0EFFEC13F003C0D9FF04C0DAFFAA
:1039FA00DE12000EDE12DE12DE1237D0FF0EFFECF0
:103A0A0013F0056E05C006F0076A086A096A030E14
:103A1A00D8900636073608360936E82EF9D703C095
:103A2A00D9FF04C0DAFF06C0DEFF07C0DEFF08C008
:103A3A00DEFF09C0DEFFFF0EFFEC13F0056E050E78
:103A4A00066ED8900532062EFCD7055003C0D9FF62
:103A5A0004C0DAFFDE12000EDE12DE12DE12FF0EE4
:103A6A00FFEC13F0FF0EFFEC13F020EE05F003500D
:103A7A00D9260450DA22FF0EFFEC13F00F0BDF6E8B
:103A8A0020EE04F00350D9260450DA22DFB022D007
:103A9A0020EE05F00350D9260450DA22DF50126EC8
:103AAA00080E126401D0126E116A11D0115003244B
:103ABA00056E000E0420066E060E0524D96E000E51
:103ACA000620DA6EFF0EFFEC13F0DF6E112A125099
:103ADA00115CECE38B8C06EC14F0136E4A0402E1E1
:103AEA004A6A010C13AE010C010E4A6E010C070E54
:103AFA0000019F6F3FD20101EE5149E078D2AD0E2D
:103B0A00046E060E056EFB0E47EC14F027D1AD0EBF
:103B1A00046E060E056EDD0E47EC14F01FD1AD0ED5
:103B2A00046E060E056ECB0E47EC14F017D1AD0EDF
:103B3A00046E060E056EC50E47EC14F00FD1A40EE6
:103B4A00046E040E056EC50E47EC14F007D1A40EE0
:103B5A00046E040E056EC20E47EC14F0FFD09A0EE6
:103B6A00046E030E056EC10E47EC14F0F7D0A30ED7
:103B7A00046E040E056EC00E47EC14F0EFD09A0ED8
:103B8A00046E030E056EC00E47EC14F0E7D020EE6B
:103B9A0001F02F50D9263050DA22DF50300AAFE038
:103BAA00010AB5E0030ABBE0010AC1E0070AC7E05F
:103BBA00010ACDE0030AD3E0010AD9E00F0ADFE0E7
:103BCA0016D20101EE5101E012D22F28016E000E29
:103BDA003020026E020E036E620E046E96EC17F02F
:103BEA00000901E104D2030E2F24016E000E3020D9
:103BFA00026E020E036E660E046E96EC17F0000952
:103C0A0001E1F5D1050E2F24016E000E3020026E5F
:103C1A00020E036E6A0E046E96EC17F0000901E1BB
:103C2A00E6D166C004F06AC005F00001625147ECB3
:103C3A0014F094D02F28016E000E3020026E020E6E
:103C4A00036E6E0E046E96EC17F0000901E1CFD1F7
:103C5A0000016E5129EC14F00001606F6051EAEC2A
:103C6A0014F07CD02F28016E000E3020026E020E56
:103C7A00036E720E046E96EC17F0000901E1B7D1DB
:103C8A00030E2F24016E000E3020026E020E036E08
:103C9A00760E046E96EC17F0000901E1A8D176C001
:103CAA0002F0000172511CEC14F058D0560E51EC7F
:103CBA0015F0010EEAEC14F0000EEAEC14F04ED006
:103CCA00760E51EC15F0010EEAEC14F0070EEAEC50
:103CDA0014F044D04E0E51EC15F08DEC14F000099E
:103CEA0025E00A0EF66E030EF76EF86A0800F55024
:103CFA0051EC15F00C0EF66E030EF76EF86A08001A
:103D0A00F55051EC15F00E0EF66E030EF76EF86ACA
:103D1A000800F55051EC15F0100EF66E030EF76E12
:103D2A00F86A0800F55051EC15F018D007680868D1
:103D3A00096A0A6A040E0B6E05EC15F00FD0010130
:103D4A00EE5101E054D1E00E026E036A0F0E57ECF9
:103D5A0014F0F8EC13F0010E0101EE6F0D0E0001E4
:103D6A009F6F45D10101EE5101E041D1E00E026E93
:103D7A00400E036E0F0E57EC14F0EDD70101EE5111
:103D8A0001E035D1E00E026E600E036E0F0E57ECA5
:103D9A0014F0020EE1D70101EE5101E128D1E00E43
:103DAA00026E800E036E0F0E57EC14F00101EE6BDB
:103DBA00D5D70101EE0501E01AD12FC013F030C0AA
:103DCA0014F0FEEC17F0000901E111D12FC0D9FF60
:103DDA0030C0DAFF5A0EDF6003D051EC15F0BED7BF
:103DEA007A0E51EC15F0BAD72D0E29EC14F0000119
:103DFA009E6F616B9EB161859EC031F0C00E311617
:103E0A0001E061879EC031F0180E311601E0618B26
:103E1A009EBB618F460E51EC15F000016151EAEC30
:103E2A0014F09CD72F28016E000E3020026E010E6E
:103E3A00036E7A0E046E96EC17F0000901E1D7D0F2
:103E4A0000017A517B117C117D11010ED8B4000E4C
:103E5A004D6E84D70101EE5101E0C9D02F28016EC1
:103E6A00000E3020026E020E036E7E0E046E96EC79
:103E7A0017F0000901E1BBD0030E2F24016E000EDA
:103E8A003020026E020E036E820E046E96EC17F05C
:103E9A00000901E1ACD0050E2F24016E000E30207E
:103EAA00026E020E036E860E046E96EC17F000097F
:103EBA0001E19DD0070E2F24016E000E3020026E04
:103ECA00020E036E8A0E046E96EC17F0000901E1E9
:103EDA008ED082C004F086C005F08AC006F00001C8
:103EEA007E512AEC15F03AD70101EE5101E07FD05C
:103EFA002F28016E000E3020026E020E036E8E0E07
:103F0A00046E96EC17F0000972E0030E2F24016E7E
:103F1A00000E3020026E020E036E920E046E96ECB4
:103F2A0017F0000964E0050E2F24016E000E302000
:103F3A00026E020E036E960E046E96EC17F00009DE
:103F4A0056E0070E2F24016E000E3020026E020E7C
:103F5A00036E9A0E046E96EC17F0000948E092C0C0
:103F6A0004F096C005F09AC006F000018E51B4EC38
:103F7A0015F0F4D62FC0D9FF30C0DAFFDF50430A5C
:103F8A0001E109D7050A01E12FD7010A01E152D659
:103F9A000B0A01E1F3D6010AA7E0030A01E19AD666
:103FAA00010A01E1CCD61D0A01E103D7010A01E1A8
:103FBA00A2D5070A01E1FDD6020A01E177D6010A74
:103FCA0001E150D60D0A01E12DD7360A01E1CAD620
:103FDA00010A01E13FD71F0A01E1EBD6010A01E11B
:103FEA00F0D5070A01E1E5D6020A01E169D6000126
:063FFA009F5151EF15F08C
:00000001FF
