:10100000E3EF14F0000902430002010080320904FA
:101010000000010202010005240010010424020264
:1010200005240600010524010001070582030800CC
:101030000209040100020A0000000705030208007B
:10104000000705810240000036034D00690063007F
:1010500072006F0063006800690070002000540097
:101060006500630068006E006F006C006F00670031
:1010700079002C00200049006E0063002E00120150
:10108000000202000008D8040A0000010102000169
:101090000E03550053004200740069006E00040303
:0410A000090400003F
:10295000B2EC14F0840ED56E840C3DC001F03EC084
:1029600002F01200D66AD76A3B6A3C6A3D6A3E6A48
:102970001200016E01C0C9FFC7A0FED7C9501200E6
:102980008B9CB00EB9EC14F0FF0EB9EC14F0026E93
:102990008B8C025012008B9CA00EB9EC14F0FF0E31
:1029A000B9EC14F0026E8B8C02501200036E8B9CFB
:1029B000020EB9EC14F00350B9EC14F00250B9EC6B
:1029C00014F08B8C12000101EE6B00EE31F01B0E47
:1029D000EE6AE806FDE1000EF86E0001EFEF18F078
:1029E000026E8B9C030EB9EC14F00250B9EC14F09B
:1029F000FF0EB9EC14F0036E8B8C03501200046EC2
:102A00008B9C050EB9EC14F00450B9EC14F0025094
:102A1000B9EC14F00350B9EC14F08B8C1200066E74
:102A200006C002F02A0ED6EC14F004C002F0290E03
:102A3000D6EC14F005C002F0280ED6EF14F0086EA4
:102A400007D00850D96EDA6ADF50F5EC15F0082A85
:102A50000850D96EDA6ADF50D8B41200F2D7445069
:102A6000016E026AD89001360236D89001360236DD
:102A70000201280E0124D96E020E0220DA6EDF5008
:102A8000036E03AE010C000C4350016E026AD89035
:102A900001360236D890013602360201100E0124AA
:102AA000D96E020E0220DA6EDF50036E03AE010C07
:102AB000000C0A6E0850065C0950075804E206C074
:102AC00008F007C009F008C041F009C042F0000E4C
:102AD0003A6E100E396E0AC038F05CEC16F00850F1
:102AE0001200086E08380F0B096E090E096402D037
:102AF000370E01D0300E09260950F5EC15F00850BC
:102B00000F0B096E090E096402D0370E01D0300E8A
:102B100009260950F5EF15F0D6CF01F0D7CF02F016
:102B20003B50015E3C50025A780E015C010E025887
:102B3000D8A01200770E3B26010E3C223D4A3E2AC9
:102B4000610E3D5CEA0E3E58D8A012003D6A3E6A16
:102B500012000D500F0FD96EDA6ADF6A19D00950D2
:102B60000F0B236E090E236402D0370E01D0300EF6
:102B700023260D500F0FD96EDA6A23C0DFFF040E33
:102B80000E6ED8900C320B320A3209320E2EF9D763
:102B90000D060D28E4E10F0E1FEF15F0076E071C60
:102BA000026E200ED6EC14F0041CE00B026E210E17
:102BB000D6EC14F0026A220ED6EC14F0026A230E50
:102BC000D6EC14F0051C026E240ED6EC14F0061C94
:102BD000E00B026E250ED6EC14F0026A260ED6EC3F
:102BE00014F0026A270ED6EF14F0076E4350046EFD
:102BF000056AD89004360536D890043605360201A9
:102C0000100E0424D96E020E0520DA6EDF50066E17
:102C100006BE12004350400D600E046E020E056E9B
:102C2000F3500426F450052248500424D96E000EB7
:102C30000520DA6E07C0DFFF466A482A4850400A7E
:102C4000D8B424EC16F0120040503F10D8B4120053
:102C5000486601D012004350016E026AD8900136D6
:102C60000236D890013602360201100E0124D96EC8
:102C7000020E0220DA6EDF50036E03BE12004350D4
:102C8000016E026AD89001360236D89001360236BB
:102C9000110E0124D96E020E0220DA6E48C0DFFF49
:102CA000486A436605D0C80E106F010E436E010CD2
:102CB000880E146F436A120042504110D8B41200BB
:102CC00041C004F042C005F0090E045C000E055836
:102CD00003E3056A080E046E036A17D038C0F6FFD6
:102CE00039C0F7FF3AC0F8FF380E0324D96EDA6A0C
:102CF000020EDA220800F5CFDFFF382A000E392253
:102D00003A224106D8A04206032A0350016E026A05
:102D10000450015C05500258E1E304C005F20201D1
:102D200004AD03D0880E046F880CC80E046FC80C65
:102D3000076E07C002F0000ED6EC14F00450E00B52
:102D4000026E010ED6EC14F007C002F0040ED6ECB1
:102D500014F00450E00B0809026E050ED6EC14F0D6
:102D600005C002F0080ED6EC14F00650E00B026E1F
:102D7000090ED6EC14F005C002F0100ED6EC14F0DB
:102D80000650E00B0809026E110ED6EC14F0026A30
:102D9000140ED6EC14F0026A150ED6EC14F0026A8A
:102DA000180ED6EC14F0026A190ED6EF14F00E6E5F
:102DB00039D0076A120E066E0CC008F00DC009F07B
:102DC0007E0E59EF15F0076A430E066E0CC008F030
:102DD0000DC009F0050E59EF15F0076A040E066ED6
:102DE0000CC008F00DC009F09E0E59EF15F0076AEF
:102DF000360E066E0CC008F00DC009F0480E59EFF3
:102E000015F0076A0E0E066E0CC008F00DC009F032
:102E1000900E59EF15F00B50E0E0010AE8E0030ACC
:102E2000F0E0000C0E50010AC4E0030ACCE0010AF5
:102E3000F2E0000C400EC76E210EC66EC950046A47
:102E40009388949C949E939C8B8C043EFED78B9C81
:102E5000C00EB9EC14F08B8C043EFED7850E026ECA
:102E60000F0ED6EC14F0026A600ED6EC14F0026A73
:102E7000700ED6EC14F0026A200ED6EC14F0026A42
:102E8000210ED6EC14F0026A220ED6EC14F0026A7F
:102E9000230ED6EC14F0026A240ED6EC14F0026A6B
:102EA000250ED6EC14F0026A260ED6EC14F0026A57
:102EB000270ED6EC14F0030E026E2B0ED6EF14F094
:102EC000800E0201006F080E016F300E026F020EBD
:102ED000036F046B080E056F380E066F020E076F46
:102EE000106B400E116F600E126F020E136F400ECA
:102EF000146F156FA00E166F020E176F206B080E61
:102F0000216F400E226F020E236F400E246F080EB9
:102F1000256F480E266F020E276F800E286F080E51
:102F2000296F500E2A6F020E2B6F800E2C6F080E29
:102F30002D6F580E2E6F020E2F6F160E0F01536F4E
:102F40001A0E546F556F1C0E566F170E616E080ED9
:102F5000646E080C4450080D500E016E020E026E95
:102F6000F3500126F45002224A500124D96E000E7B
:102F70000220DA6EDF50036E4A2A4450016E026A64
:102F8000D89001360236D890013602360201290E59
:102F90000124D96E020E0220DA6E4A50DF6228D078
:102FA0004450016E026AD89001360236D89001363C
:102FB0000236290E0124D96E020E0220DA6E080EA6
:102FC000DF6E4450016E026AD89001360236D89006
:102FD00001360236280E0124D96E020E0220DA6E66
:102FE000800EDF6E4A6A4450010ED8A4000E446E73
:102FF000035012000450D96EDA6ADE6ADE6ADE6AB5
:10300000DD6A62D001C0D9FF02C0DAFFDF5001E102
:10301000000C0450D96EDA6A040ED890DE36DE3623
:10302000DE36DD36D906D906E82EF7D701C0D9FF3E
:1030300002C0DAFF2F0EDF640BD001C0D9FF02C03F
:10304000DAFFDF50056E3A0E055C02E2D00E23D0A7
:1030500001C0D9FF02C0DAFF400EDF640BD001C00F
:10306000D9FF02C0DAFFDF50056E470E055C02E2B1
:10307000C90E11D001C0D9FF02C0DAFF600EDF64B3
:10308000000C01C0D9FF02C0DAFFDF50056E670EE9
:10309000055CBEE2A90E056E066801C0D9FF02C03C
:1030A000DAFFDF50076E086A05500726065008222F
:1030B0000450D96EDA6A0750DE260850DE22000E70
:1030C000DE22DD22014A022A030603289BE1010CCD
:1030D000010E146E10C0D9FF11C0DAFFDF50720A62
:1030E00008E010C0D9FF11C0DAFFDF50520AD8A49F
:1030F000146A14B002D0209001D0208010C0D9FFF3
:1031000011C0DAFFDF50126E5A0E125C03E2208209
:10311000080E02D02092030E166E1028016E000ECB
:103120001120026E16C003F0180E046EFAEC17F0B0
:10313000000901E1000C18C01CF019C01DF01AC0F4
:103140001EF01BC01FF016501024126E000E11202E
:10315000136E1228016E000E1320026E010E036E14
:10316000180E046EFAEC17F00009E4E018C021F024
:1031700020B032D021C015F0080E156401D0156EB4
:10318000176A27D01750020D10C012F011C013F0AB
:10319000F3501226F450132216501226000E13225A
:1031A000020E1224016E000E1320026E020E036E38
:1031B000180E046EFAEC17F00009BCE017C012F00C
:1031C000060E122612501C0FD96EDA6A18C0DFFFE5
:1031D000172A1550175CD6E31C0E55EF1AF01AEC9F
:1031E00017F0300ED36E7E6A7F6A939A8A9AA8ECA3
:1031F00014F060EC17F00101EC6BEA6BE86BE96B23
:10320000ED6BD6CFE4F1D7CFE5F1E66B9BEC19F08F
:103210008CEC15F00101EE51D8A482B42DD0080E2B
:10322000EA5D2AE2E851100D640EF324056E010EEA
:10323000F420066E53EC1CF000091EE00101E829A1
:10324000070BE86FEA2B18D0E951100D640EF32438
:10325000016E010EF420026E010E046EED0E036E7F
:103260003FEC1BF0F5EC15F00101ED2905E1ED6BEC
:10327000E929070BE96FEA0744EC15F0000929E09A
:103280000101EA67E1D725D0AAEC17F00101EB6F45
:10329000EB510D0A0FE1000EEC25D96EDA6A010E32
:1032A000DA22DF6A2D6E000E2C6E9CEC1DF00101FF
:1032B000EC6B0FD0EB510A0A0CE0000EEC25D96E36
:1032C000DA6A010EDA22EBC1DFFF630EEC5DD8A0F3
:1032D000EC2B2FEC15F0000903E00101ED51D4E0D7
:1032E000D6CF2FF0D7CF30F00101E4512F5EE5515A
:1032F000305A7D0E2F5C920E305805E37C0EE42789
:10330000920EE523E62B010EE76FE6C12FF00F0EBC
:103310002F1603E0EE6701D0E76BE7B102D08A9A7F
:1033200001D08A8A80B672D7646AFA0E00F0E82E5D
:10333000FDD7FF006BD7462AC90E466402D024ECA5
:1033400016F062A612006366A3D000C20FF0D890F8
:103350000F32D8900F320F0E0F160F500D0A7EE16C
:103360000201046B046B30C20FF0600E0F1629E0EF
:103370003DD032C20BF037510D6E36510C6E3351C9
:10338000D7EC16F000097EE10201056BCC0E04D0EB
:1033900032C24BF008D0C80E046F74D032C249F06C
:1033A000406A010E3F6E056BF6D749C038F2010E38
:1033B00048D0386BFCD7386B396B020E42D0056BA6
:1033C000EAD73151F8E0010AFAE0020AF8E0060A09
:1033D000DFE0030ACEE00E0AE8E0010ADFE0030ABC
:1033E000E8E01B0AECE0030AE6E0CED730C20FF0BB
:1033F000600E0F160F50200A26E044D0106A380ED7
:103400001024D96EDA6A020EDA22DF6A102A070E59
:103410001064F5D7080E15D0010E456EC4D7116A99
:103420001150310FD96EDA6A380E1124E16EE26A5A
:10343000020EE222DFCFE7FF112A060E1164F0D759
:10344000070E056FA8D73151BAE0010AD7E0210A6B
:10345000E3E0010AE4E0030AB2E096D7455012E047
:10346000126A300E1224D96EDA6A020EDA22125073
:10347000310FE16EE26ADFCFE7FF122A060E126417
:10348000F0D7456A080E0201016F800E006F0AD066
:103490006350040A07E14B5003E04BC05CFF4B6AEA
:1034A0005CEC16F06498629612000F6ECBEC14F090
:1034B0000D6E0F50D96EDA6A050ED926DF500B6EED
:1034C000080E0B6401D00B6E0DB402D00E6A08D04A
:1034D0000DB802D0020E03D00DBC000C040E0E6E0F
:1034E0008B9C0E504009B9EC14F00F50D96EDA6A7B
:1034F000040ED926DFA263D00F50D96EDA6ADECF70
:1035000003F0DECF04F0DECF05F0DECF06F0160EBE
:1035100005D0D8900632053204320332E82EF9D7AE
:103520000350B9EC14F00F50D96EDA6ADECF03F015
:10353000DECF04F0DECF05F0DECF06F0110E05D0B1
:10354000D8900632053204320332E82EF9D7030E42
:1035500003160F50D96EDA6ADECF07F0DECF08F01F
:10356000DECF09F0DECF0AF00E0E05D0D8900A3279
:10357000093208320732E82EF9D70750E00B031062
:103580000809B9EC14F00F50D96EDA6ADECF03F0F7
:10359000DECF04F0DECF05F0DECF06F004C003F08E
:1035A00005C004F006C005F0066A0350B9EC14F03B
:1035B0000F50D96EDA6ADF50B9EC14F02BD00F50EF
:1035C000D96EDA6ADECF03F0DECF04F0DECF05F08D
:1035D000DECF06F0040E05D0D89006320532043254
:1035E0000332E82EF9D70350B9EC14F00F50D96E1E
:1035F000DA6ADF50036E050E046ED8900336042E8F
:10360000FCD70350B9EC14F0000EB9EC14F0000E26
:10361000B9EC14F00F50D96EDA6A040ED926DFA087
:103620000AD00F50D96EDA6A050ED926DF5040094C
:10363000B9EC14F017D00F50D96EDA6A050ED926FE
:10364000DF50B9EC14F00C6A0AD00F500C24D96E7C
:10365000DA6A060ED926DF50B9EC14F00C2A0B50AA
:103660000C5CF3E38B8C00F08B9C0E6602D0010E99
:103670000E6E0E508009B9EC14F08B8C010C03C057
:10368000D9FF04C0DAFFDF500E6E03C0D9FF04C0BB
:10369000DAFFDF5023E120EE04F00150D92602507A
:1036A000DA22DFA20ED0010E0E6E20EE04F00150E1
:1036B000D9260250DA22DFA002D0520E0DD0540ECD
:1036C0000BD0060E0E6E20EE04F00150D9260250EB
:1036D000DA22720EDFA0740E0F6EDDD003C0D9FFA8
:1036E00004C0DAFFDF50056E090E055C2BE203C053
:1036F000D9FF04C0DAFFDF50056E05040B6E02C06F
:103700000AF001C009F0D8900B30095C056E000E7C
:103710000A58066E030E0524D96E000E0620DA6ED6
:10372000DF500F6E0BB003D00F3A0F0E0F160F0EB7
:103730000F16090E0F6402D0370E01D0300E0F267F
:103740000E2AA9D003C0D9FF04C0DAFFDF50056EEE
:103750000A0E055C24E220EE05F00150D926025045
:10376000DA22DF500F6E0F0E0F16090E0F6402D013
:10377000370E01D0300E0F2620EE05F00150D9266D
:103780000250DA22DF5008E020EE04F00150D92682
:103790000250DA22DFA0D4D71A0E0E6E7CD003C0FE
:1037A000D9FF04C0DAFFDF50056E1A0E055C3EE259
:1037B00003C0D9FF04C0DAFFDF50F60F0C6ED890BB
:1037C0000C300124056E000E0220066E060E052444
:1037D000D96E000E0620DA6EDF500F6E0CB003D0EB
:1037E0000F3A0F0E0F160F0E0F16090E0F6402D0B0
:1037F000370E01D0300E0F260E2A20EE05F00150B4
:10380000D9260250DA22DF50020DF60E056E066848
:103810000E50076E086A0550072606500822F4501D
:10382000081802E1F3500718B7E035D0475030E0F0
:1038300003C0D9FF04C0DAFFDF50056E1E0E055C21
:1038400027E203C0D9FF04C0DAFFDF50E60F0D6E98
:10385000020E0D5C0FE220EE0EF00150D926025050
:10386000DA22DECF05F0DDCF06F006C005F0066AED
:10387000055007D020EE0EF00150D9260250DA2272
:10388000DF500F6E0DB053D70F3A0F0E0F164FD7F4
:103890000D0E0F6E0E6803C0D9FF04C0DAFF0EC014
:1038A000DFFF0F501200C0EC14F0136E13AC02D007
:1038B000126A04D013AE000C040E126EADEC14F0BC
:1038C00020EE0EF00550D9260650DA2201C0DEFFA8
:1038D00002C0DDFF13C007F0D8900732D89007323E
:1038E000D8900732010E071620EE04F00550D926B5
:1038F0000650DA22DF500718FE0B0718DF6E13C0E0
:1039000007F0073A0F0E0716010E071620EE04F017
:103910000550D9260650DA220746DF500718FD0B5E
:103920000718DF6E8B9C12509009B9EC14F020EE52
:1039300004F00550D9260650DA22DFA281D0FF0E0E
:10394000B9EC14F0076E07C008F0096A0A6A0B6A3E
:10395000150ED890083609360A360B36E82EF9D7F8
:1039600005C0D9FF06C0DAFF08C0DEFF09C0DEFFD0
:103970000AC0DEFF0BC0DDFFD906D906FF0EB9EC89
:1039800014F00C6E0D6A0E6A0F6AE00E0C14076ECE
:10399000086A096A0A6A0D0ED89007360836093691
:1039A0000A36E82EF9D705C0D9FF06C0DAFF07505E
:1039B000DE120850DE120950DE120A50DD12030E2C
:1039C0000C14076E086A096A0A6A08C00AF007C080
:1039D00009F0086A076A05C0D9FF06C0DAFF075078
:1039E000DE120850DE120950DE120A50DD12FF0E00
:1039F000B9EC14F0076E07C008F0096A0A6A0B6A8E
:103A00000AC00BF009C00AF008C009F0086A05C036
:103A1000D9FF06C0DAFF0850DE120950DE120A5044
:103A2000DE120B50DD12FF0EB9EC14F005C0D9FF09
:103A300006C0DAFFDE12000EDE12DE12DD1239D011
:103A4000FF0EB9EC14F0076E07C008F0096A0A6AA5
:103A50000B6A030ED890083609360A360B36E82E64
:103A6000F9D705C0D9FF06C0DAFF08C0DEFF09C0DC
:103A7000DEFF0AC0DEFF0BC0DDFFD906D906FF0E50
:103A8000B9EC14F0076E050E086ED8900732082EB8
:103A9000FCD7075005C0D9FF06C0DAFFDE12000EC2
:103AA000DE12DE12DD12FF0EB9EC14F0FF0EB9ECDF
:103AB00014F020EE05F00550D9260650DA22FF0E4C
:103AC000B9EC14F00F0BDF6E20EE04F00550D92690
:103AD0000650DA22DFB022D020EE05F00550D926BC
:103AE0000650DA22DF50116E080E116401D0116EFB
:103AF000106A11D010500524076E000E0620086EC3
:103B0000060E0724D96E000E0820DA6EFF0EB9ECFF
:103B100014F0DF6E102A1150105CECE38B8C1266EF
:103B200002D0010E01D0020E126E12C002F0036A22
:103B30002C0EFFEC14F0010C070E00019F6F1FD23A
:103B40000101EE6759D248D0AD0E046E060E056E27
:103B5000FB0E0FEC15F000D1AD0E046E060E056ED7
:103B6000DD0E0FEC15F0F8D0AD0E046E060E056EEE
:103B7000CB0E0FEC15F0F0D0AD0E046E060E056EF8
:103B8000C50E0FEC15F0E8D0A40E046E040E056E01
:103B9000C50E0FEC15F0E0D0A40E046E040E056EF9
:103BA000C20E0FEC15F0D8D09A0E046E030E056EFF
:103BB000C10E0FEC15F0D0D0A30E046E040E056EEE
:103BC000C00E0FEC15F0C8D09A0E046E030E056EF1
:103BD000C00E0FEC15F0C0D020EE01F02C50D9260D
:103BE0002D50DA22DF50300AAFE0010AB5E0030AB7
:103BF000BBE0010AC1E0070AC7E0010ACDE0030A01
:103C0000D3E0010AD9E00F0ADFE0F6D10101EE6747
:103C1000F3D12C28016E000E2D20026E020E036ED1
:103C20000001620E046EFAEC17F0000901E1E4D124
:103C3000030E2C24016E000E2D20026E020E036E68
:103C40000001660E046EFAEC17F0000901E1D4D110
:103C5000050E2C24016E000E2D20026E020E036E46
:103C600000016A0E046EFAEC17F0000901E1C4D1FC
:103C700066C004F06AC005F0000162510FEC15F057
:103C80006BD02C28016E000E2D20026E020E036EEA
:103C90006E0E046EFAEC17F0000901E1ADD10001DF
:103CA0006E51F0EC14F00001606F605171EC15F092
:103CB00053D02C28016E000E2D20026E020E036ED2
:103CC000720E046EFAEC17F0000901E195D1030EB3
:103CD0002C24016E000E2D20026E020E036E0001D8
:103CE000760E046EFAEC17F0000901E185D176C07A
:103CF00002F000017251D6EC14F02ED0560EF5EC05
:103D000015F0010E71EC15F0000E71EC15F024D0D9
:103D1000760EF5EC15F0010E71EC15F0050E71EC58
:103D200015F01AD04E0EF5EC15F009680A680B6A0A
:103D30000C6A040E0D6EA9EC15F00ED00101EE67B1
:103D40005BD1E00E026E036A0F0EFFEC14F0B2ECD2
:103D500014F0010E0101EE6F0D0E00019F6F4CD1AA
:103D60000101EE6749D1E00E026E400E036E0F0EA8
:103D7000FFEC14F0EED70101EE673ED1E00E026ECB
:103D8000600E036E0F0EFFEC14F0020EE3D701017C
:103D9000EE5101E131D1E00E026E800E036E0F0E86
:103DA000FFEC14F00101EE6BD7D70101EE0501E045
:103DB00023D12DC011F02CC010F068EC18F00009D0
:103DC00001E11AD12CC0D9FF2DC0DAFFDF502E6ED1
:103DD0005A0E2E5C04E25A0EF5EC15F0BDD77A0EA1
:103DE000F5EC15F0B9D72D0EF0EC14F000019E6F34
:103DF000616B9EB161859EC02EF0C00E2E16D8A4B8
:103E000061879EC02EF0180E2E16D8A4618B9EBB23
:103E1000618F460EF5EC15F00001615171EC15F063
:103E20009BD72C28016E000E2D20026E010E036E12
:103E30007A0E046EFAEC17F0000901E1DDD0000102
:103E40007D517A117B117C11010ED8B4000E476EA2
:103E500083D70101EE67D0D02C28016E000E2D20F3
:103E6000026E020E036E00017E0E046EFAEC17F075
:103E7000000901E1C1D0030E2C24016E000E2D209B
:103E8000026E020E036E0001820E046EFAEC17F051
:103E9000000901E1B1D0050E2C24016E000E2D2089
:103EA000026E020E036E0001860E046EFAEC17F02D
:103EB000000901E1A1D0070E2C24016E000E2D2077
:103EC000026E020E036E00018A0E046EFAEC17F009
:103ED000000901E191D082C004F086C005F08AC0DB
:103EE00006F000017E51CEEC15F036D70101EE67E9
:103EF00083D02C28016E000E2D20026E020E036E60
:103F000000018E0E046EFAEC17F0000975E0030E46
:103F10002C24016E000E2D20026E020E036E000195
:103F2000920E046EFAEC17F0000966E0050E2C24E0
:103F3000016E000E2D20026E020E036E0001960E21
:103F4000046EFAEC17F0000957E0070E2C24016EFE
:103F5000000E2D20026E020E036E00019A0E046EFA
:103F6000FAEC17F0000948E092C004F096C005F0A2
:103F70009AC006F000018E5198EC16F0EDD62CC0D8
:103F8000D9FF2DC0DAFFDF50430A01E100D7050A4F
:103F900001E129D7010A01E174D60B0A01E1EBD650
:103FA000010AA4E0030A01E1BDD6010A01E1C6D677
:103FB0001D0A01E1FAD6010A01E1C2D5070A01E1B1
:103FC000F4D6020A01E19AD6010A01E172D60D0A7D
:103FD00001E127D7360A01E1C3D6010A01E139D749
:103FE0001F0A01E1E2D6010A01E110D6070A01E148
:103FF000DCD6020A01E18CD600019F51F5EF15F0E5
:00000001FF
