:1010000098EF14F000090243000201008032090445
:101010000000010202010005240010010424020264
:1010200005240600010524010001070582030800CC
:101030000209040100020A0000000705030208007B
:10104000000705810240000036034D00690063007F
:1010500072006F0063006800690070002000540097
:101060006500630068006E006F006C006F00670031
:1010700079002C00200049006E0063002E00120150
:10108000000202000008D8040A0000010102000169
:101090000E03550053004200740069006E00040303
:0310A00009040040
:1026EF000382EC13F0840ED56E840C40C001F041D0
:1026FF00C002F01200D66AD76A3E6A3F6A406A414A
:10270F006A1200016E01C0C9FFC7A0FED7C95012DF
:10271F00008B9CB00E89EC13F0FF0E89EC13F002C6
:10272F006E8B8C025012008B9CA00E89EC13F0FF65
:10273F000E89EC13F0026E8B8C02501200036E8B1D
:10274F009C020E89EC13F0035089EC13F0025089B0
:10275F00EC13F08B8C120007D00650D96EDA6ADFBB
:10276F005005EC15F0062A0650D96EDA6ADF50F4E0
:10277F00E11200026E8B9C030E89EC13F00250895C
:10278F00EC13F0FF0E89EC13F0036E8B8C035012D9
:10279F0000066E06C002F02A0EA6EC13F004C0026B
:1027AF00F0290EA6EC13F005C002F0280EA6EF13C9
:1027BF00F0046E8B9C050E89EC13F0045089EC131A
:1027CF00F0025089EC13F0035089EC13F08B8C124C
:1027DF00004950016E026AD89001360236D8900136
:1027EF00360236280E0124D96E020E0220DA6E024E
:1027FF0001DFAE010C000C4850016E026AD8900147
:10280F00360236D89001360236100E0124D96E02E8
:10281F000E0220DA6E0201DFAE010C000C016AF627
:10282F006A030EF76E0800F550120A0BE1010EF65F
:10283F006E030EF76EF86A0800F550030A02E10105
:10284F000E016E015012000C500A5C0D500B580413
:10285F00E20AC00CF00BC00DF00CC046F00DC047E3
:10286F00F007C03BF008C03CF009C03DF0BBEC16D0
:10287F00F00C5012003E50D65C016E3F50D75802FC
:10288F006E780E015C010E0258D8A01200770E3E32
:10289F0026010E3F22404A412A610E405CEA0E415A
:1028AF0058D8A01200406A416A1200066E06380F0F
:1028BF000B076E090E076402D0370E01D0300E07DA
:1028CF0026075005EC15F006500F0B076E090E0783
:1028DF006402D0370E01D0300E0726075005EF15D2
:1028EF00F0056E060E056009D00550100DF350600F
:1028FF000F036E03C001F0026A12000550036E044D
:10290F006A033A043AF00E041603500F0B0412F048
:10291F000E03160F0E0324016E010E0420026E1219
:10292F0000EF0EF66E260EF76E000EF86E0900F52C
:10293F00CF52F001EE6EF0610EEE6AE806FDE10097
:10294F00EE60F0600EEE6AE806FDE100EE34F01E78
:10295F000EEE6AE806FDE1000EF86E00015CEF185E
:10296F00F00B500D0FD96EDA6ADF6A19D007500FCE
:10297F000B216E090E216402D0370E01D0300E21CB
:10298F00260B500D0FD96EDA6A21C0DFFF040E0C33
:10299F006ED8900A320932083207320C2EF9D70B53
:1029AF00060B28E4E10D0E066EB3EF13F0076E076A
:1029BF001C026E200EA6EC13F0041CE00B026E211D
:1029CF000EA6EC13F0026A220EA6EC13F0026A2395
:1029DF000EA6EC13F0051C026E240EA6EC13F006E7
:1029EF001CE00B026E250EA6EC13F0026A260EA653
:1029FF00EC13F0026A270EA6EF13F0056E48500392
:102A0F006E046AD89003360436D890033604361015
:102A1F000E0324D96E020E0420DA6E0201DFBE12FD
:102A2F00004850400D600E036E020E046EF350030B
:102A3F0026F45004224E500324D96E000E0420DADF
:102A4F006E05C0DFFF4C6A4E2A400E4E18D8B46692
:102A5F00EC15F01200066A02AE06D0016C021ED809
:102A6F00B0022A010E066E04AE04D0036C041ED809
:102A7F00B0042A0350041017E0010E056E04D0D8DD
:102A8F009003360436052A04AEFAD70350015C04CE
:102A9F0050025804E30350015E0450025AD89004C8
:102AAF00320332052EF2D7065004E0016C021ED815
:102ABF00B0022A01C001F002C002F01200425043DE
:102ACF001001E112004E5001E112004850016E0258
:102ADF006AD89001360236D89001360236100E01B0
:102AEF0024D96E020E0220DA6E0201DFBE120048F8
:102AFF0050016E026AD89001360236D89001360224
:102B0F0036110E0124D96E020E0220DA6E4EC0DF8E
:102B1F00FF4E6A485005E1C80E106F010E486E0156
:102B2F000C880E146F486A1200076E07C002F0007F
:102B3F000EA6EC13F00450E00B026E010EA6EC1380
:102B4F00F007C002F0040EA6EC13F00450E00B08DF
:102B5F0009026E050EA6EC13F005C002F0080EA6D2
:102B6F00EC13F00650E00B026E090EA6EC13F00505
:102B7F00C002F0100EA6EC13F00650E00B0809028D
:102B8F006E110EA6EC13F0026A140EA6EC13F002EF
:102B9F006A150EA6EC13F0026A180EA6EC13F002DB
:102BAF006A190EA6EF13F0400EC76E210EC66EC93E
:102BBF0050046A9388949C949E939C8B8C043EFE45
:102BCF00D78B9CC00E89EC13F08B8C043EFED785FF
:102BDF000E026E0F0EA6EC13F0040E026E600EA620
:102BEF00EC13F0026A700EA6EC13F0026A200EA628
:102BFF00EC13F0026A210EA6EC13F0026A220EA665
:102C0F00EC13F0026A230EA6EC13F0026A240EA650
:102C1F00EC13F0026A250EA6EC13F0026A260EA63C
:102C2F00EC13F0026A270EA6EC13F0030E026E2BC4
:102C3F000EA6EF13F0800E0201006F080E016F3029
:102C4F000E026F020E036F046B080E056F380E062F
:102C5F006F020E076F106B400E116F600E126F0236
:102C6F000E136F400E146F156FA00E166F020E1716
:102C7F006F206B080E216F400E226F020E236F40E4
:102C8F000E246F080E256F480E266F020E276F80D9
:102C9F000E286F080E296F500E2A6F020E2B6F80B1
:102CAF000E2C6F080E2D6F580E2E6F020E2F6F16F3
:102CBF000E0F01536F1A0E546F556F1C0E566F1770
:102CCF000E616E080E646E080C4950080D500E010F
:102CDF006E020E026EF3500126F450022250500184
:102CEF0024D96E000E0220DA6EDF50046E502A498E
:102CFF0050016E026AD89001360236D89001360222
:102D0F0036290E0124D96E020E0220DA6E5050DEE3
:102D1F001828E14950016E026AD89001360236D860
:102D2F009001360236290E0124D96E020E0220DAE6
:102D3F006E080EDF6E4950016E026AD8900136029E
:102D4F0036D89001360236280E0124D96E020E02B3
:102D5F0020DA6E800EDF6E506A4950010ED8A40043
:102D6F000E496E045012004650471001E112004602
:102D7F00C004F047C005F0055003E1090E045C03E1
:102D8F00E3056A080E046E066A2DD08E0E3B1813EB
:102D9F00E1100E3C1810E1000E3D180DE116EC1479
:102DAF00F0000909E0380E0624D96EDA6A020EDA4D
:102DBF0022030EDF6E0FD03BC0F6FF3CC0F7FF3D86
:102DCF00C0F8FF380E0624D96EDA6A020EDA22082E
:102DDF0000F5CFDFFF3B2A000E3C223D224606D8EE
:102DEF00A04706062A0650026E036A0450025C05CD
:102DFF00500358CBE304C005F2020104AD03D088A1
:102E0F000E046F880CC80E046FC80C116E55D07E5F
:102E1F000E076E0750D8A4100E086E0850D8A400E5
:102E2F000E096E38D0050E076E0750D8A4100E0885
:102E3F006E0850D8A4000E096E0B6A430E2DD09E5B
:102E4F000E076E0750D8A4100E086E0850D8A400B5
:102E5F000E096E0B6A040E20D0480E076E0750D86D
:102E6F00A4100E086E0850D8A4000E096E0B6A3617
:102E7F000E13D0900E076E0750D8A4100E086E08D0
:102E8F0050D8A4000E096E0B6A0E0E06D0076A0307
:102E9F000E086E096A0B6A120E0A6E0FC00CF01044
:102EAF00C00DF02BEF14F00E50CAE0010AD5E0036D
:102EBF000AE0E0010AEBE0000C1150010AA8E00360
:102ECF000AB1E0010AF0E0000C0450D96EDA6ADEB4
:102EDF006ADE6ADE6ADD6A5CD001C0D9FF02C0DA41
:102EEF00FFDF5001E1000C0450D96EDA6A040ED8EE
:102EFF0090DE36DE36DE36DD36D906D906E82EF719
:102F0F00D701C0D9FF02C0DAFF2F0EDF6409D0014D
:102F1F00C0D9FF02C0DAFF3A0EDF6002D0D00E1F19
:102F2F00D001C0D9FF02C0DAFF400EDF6409D00123
:102F3F00C0D9FF02C0DAFF470EDF6002D0C90E0F03
:102F4F00D001C0D9FF02C0DAFF600EDF64000C01B0
:102F5F00C0D9FF02C0DAFF670EDF60000CA90E05B3
:102F6F006E066801C0D9FF02C0DAFFDF50076E0896
:102F7F006A05500726065008220450D96EDA6A07F0
:102F8F0050DE260850DE22000EDE22DE22014A022B
:102F9F002A03060328A1E1010C010E176E13C0D9F5
:102FAF00FF14C0DAFF720EDE1808E013C0D9FF1449
:102FBF00C0DAFF520EDE1801E0176A17B002D023F5
:102FCF009001D0238013C0D9FF14C0DAFF5A0EDF4F
:102FDF006003D02382080E02D02392030E196E13C2
:102FEF0028016E000E1420026E19C003F01B0E0490
:102FFF006E6CEC17F0000901E1000C1BC01FF01CF8
:10300F00C020F01DC021F01EC022F019501324154E
:10301F006E000E1420166E1528016E000E1620027B
:10302F006E010E036E1B0E046E6CEC17F00009019F
:10303F00E1000C1BC024F023B033D024C018F008DB
:10304F000E186401D0186E1A6A28D01A50020D1388
:10305F00C015F014C016F0F3501526F450162219AF
:10306F00501526000E1622020E1524016E000E16A4
:10307F0020026E020E036E1B0E046E6CEC17F00036
:10308F000901E1000C1AC015F0060E152615501F88
:10309F000FD96EDA6A1BC0DFFF1A2A18501A5CD5D7
:1030AF00E31F0E056EF6EF1AF0DBEC15F0300ED3C2
:1030BF006E7E6A7F6A939A8A9A78EC13F022EC16E6
:1030CF00F001016C6B6A6B686B696B6D6BD6CF64CB
:1030DF00F1D7CF65F1666B1AEC19F042EC14F00FD3
:1030EF00D0010E01016825016E026A000E02220452
:1030FF006A0C0E036E32EC15F00150686F6A2B01EB
:10310F00016E5132E082B430D00C0E6A612DD0685E
:10311F005178EC14F001C006F002C007F00DEC1C62
:10312F00F0000922E0DDD7695178EC14F001C006F8
:10313F00F002C007F06D0E086E010E096EECEC196F
:10314F00F005EC15F001016D290FE16D6B69290197
:10315F006E026A000E0222046A0C0E036E32EC1528
:10316F00F00150696F6A072ED003EC14F000092AA2
:10317F00E001016A5127E0D7D76CEC16F001016B23
:10318F006F0D0E6B1910E1000E6C25D96EDA6A0106
:10319F000EDA22DF6A000E2F6E010E306E64EC1D08
:1031AF00F001016C6B0FD00A0E6B190CE0000E6C66
:1031BF0025D96EDA6A010EDA226BC1DFFF630E6C5E
:1031CF006101D06C2BF0EC13F0000903E001016DED
:1031DF0051D3E001016451D65C326E6551D758333B
:1031EF006E7D0E325C920E335805E37C0E6427928F
:1031FF000E6523662B010E676F66C132F00F0E321C
:10320F001603E06E5101E1676B67B102D08A9A0134
:10321F00D08A8A80B660D7646AFA0E00F0E82EFD75
:10322F00D7FF0059D74C2A4C04126EC80E126402F5
:10323F00D066EC15F062A61200635001E0B8D00220
:10324F00010041E8423F0B0F0B0D0A01E096D0043D
:10325F006B046B30C212F0600E121643E057D0327F
:10326F00C20EF03751126E36510F6E12C010F0337E
:10327F00510DEC17F0000901E094D00201056BCC61
:10328F000E04D032C251F008D0C80E046F8AD0326B
:10329F00C24FF0436A010E426E056BF6D74FC0382E
:1032AF00F2010E47D0386BFCD730511F0B020A05C5
:1032BF00E144C038F245C039F202D0386B396B02A5
:1032CF000E38D030511F0B020AE7E13251E5E10110
:1032DF000E446EE2D730511F0B020A01E1446A051A
:1032EF006BD3D73151E1E0010AF5E0020AEAE006BB
:1032FF000AC8E0030AB4E00E0AD1E0010AC8E003ED
:10330F000AD1E01B0AECE0030AD8E0B7D7305160CE
:10331F000B200A28E046D0146A380E1424D96EDA2E
:10332F006A020EDA22DF6A142A070E1464F5D70830
:10333F000E17D0056FA9D7010E4B6EAED7156A15B4
:10334F0050340FD96EDA6A380E1524E16EE26A0234
:10335F000EE222DFCFE7FF152A060E1564F0D7071E
:10336F000E0201E7D73151BBE0010AD5E0210AE394
:10337F00E0010AE4E0030AB3E080D74B5012E016F5
:10338F006A300E1624D96EDA6A020EDA221650341B
:10339F000FE16EE26ADFCFE7FF162A060E1664F022
:1033AF00D74B6A080E0201016F800E006F0AD0041E
:1033BF000E631807E1515003E051C05CFF516ABB27
:1033CF00EC16F064986296120008C0D9FF09C0DAB3
:1033DF00FFDF50136E08C0D9FF09C0DAFFDF50239B
:1033EF00E120EE04F00650D9260750DA22DFA20EB4
:1033FF00D0010E136E20EE04F00650D9260750DAD6
:10340F0022DFA002D0520E0DD0540E0BD0060E1399
:10341F006E20EE04F00650D9260750DA22720EDF26
:10342F00A0740E146ED3D008C0D9FF09C0DAFF09FB
:10343F000EDF6027D008C0D9FF09C0DAFFDF500ABE
:10344F006E0A04106E06C00EF007C00FF0D8901071
:10345F00300E5C0A6E000E0F580B6E030E0A24D945
:10346F006E000E0B20DA6EDF50146E10B0A6D01463
:10347F003A0F0E1416A2D0370E01D0300E142613A9
:10348F002AA5D008C0D9FF09C0DAFF0A0EDF6024D1
:10349F00D020EE05F00650D9260750DA22DF50145F
:1034AF006E0F0E1416090E146402D0370E01D030B1
:1034BF000E142620EE05F00650D9260750DA22DF2B
:1034CF005008E020EE04F00650D9260750DA22DF2C
:1034DF00A0D6D71A0E136E7AD008C0D9FF09C0DA5A
:1034EF00FF1A0EDF603ED008C0D9FF09C0DAFFDF38
:1034FF0050F60F116ED890113006240A6E000E0789
:10350F00200B6E060E0A24D96E000E0B20DA6EDF2A
:10351F0050146E11B003D0143A0F0E14160F0E1470
:10352F0016090E146402D0370E01D0300E14261374
:10353F002A20EE05F00650D9260750DA22DF500276
:10354F000DF60E0A6E0B6813500C6E0D6A0A500CB6
:10355F00260B500D22F3500C1839E1F4500D18B909
:10356F00E035D04D5030E008C0D9FF09C0DAFF1E5A
:10357F000EDF6029D008C0D9FF09C0DAFFDF50E69F
:10358F000F126E020E12600FD020EE0EF00650D901
:10359F00260750DA22DECF0AF0DDCF0BF00BC00A80
:1035AF00F00B6A0A5007D020EE0EF00650D926070E
:1035BF0050DA22DF50146E12A05AD70F0E141609CC
:1035CF000E14645BD758D70D0E146E136808C0D94C
:1035DF00FF09C0DAFF13C0DFFF145012009BEC137A
:1035EF00F00E6E0550D96EDA6A050ED926DF50112E
:1035FF006E080E116428D0116E26D0500E106E0476
:10360F000E0F6E030E1CD0400E106E020E0F6E3298
:10361F00D0300E106E0F6A2ED0500E106E040E0F9B
:10362F006E52500FE1030E026E036E400EE0EC136C
:10363F00F0030E026E036E300EE0EC13F0020E522A
:10364F006E19D0520617D00E50540B066E076A072C
:10365F0050D8A4000C0650D1E0040ADEE0140AD8BA
:10366F00E0040ADAE0540ACFE0040ACDE0140AD8E5
:10367F00A4000CCED78B9C0F50400989EC13F0059A
:10368F0050D96EDA6A040ED926DFA263D00550D95D
:10369F006EDA6ADECF06F0DECF07F0DECF08F0DE9F
:1036AF00CF09F0160E05D0D890093208320732062E
:1036BF0032E82EF9D7065089EC13F00550D96EDA9F
:1036CF006ADECF06F0DECF07F0DECF08F0DECF09DF
:1036DF00F0110E05D0D8900932083207320632E8C1
:1036EF002EF9D7030E06160550D96EDA6ADECF0A09
:1036FF00F0DECF0BF0DECF0CF0DECF0DF00E0E05AF
:10370F00D0D8900D320C320B320A32E82EF9D70A8C
:10371F0050E00B0610080989EC13F00550D96EDA4A
:10372F006ADECF06F0DECF07F0DECF08F0DECF097E
:10373F00F007C006F008C007F009C008F0096A06D4
:10374F005089EC13F00550D96EDA6ADF5089EC130B
:10375F00F02BD00550D96EDA6ADECF06F0DECF0738
:10376F00F0DECF08F0DECF09F0040E05D0D89009B7
:10377F0032083207320632E82EF9D7065089EC1399
:10378F00F00550D96EDA6ADF50066E050E076ED857
:10379F00900636072EFCD7065089EC13F0000E89E1
:1037AF00EC13F0000E89EC13F00550D96EDA6A04B1
:1037BF000ED926DFA00AD00550D96EDA6A050ED9C8
:1037CF0026DF50400989EC13F017D00550D96EDA77
:1037DF006A050ED926DF5089EC13F0126A0AD0055C
:1037EF00501224D96EDA6A060ED926DF5089EC13EF
:1037FF00F0122A1150125CF3E38B8C00F052500838
:10380F0009026E1050A6EC13F0010C90EC13F01699
:10381F006E16C008F0C00E08160BE04A5004E00EFA
:10382F006A040E0D6E02D00D6A0E6A0DC00FF00BFA
:10383F00D016AE05D0040E0F6E010E4A6E04D016D0
:10384F00AC000C0F6A4A6A7DEC13F020EE0EF00606
:10385F0050D9260750DA2201C0DEFF02C0DDFF1665
:10386F00C008F0D8900832D8900832D890083201AA
:10387F000E081620EE04F00650D9260750DA22DF84
:10388F00500818FE0B0818DF6E16C008F0083A0F24
:10389F000E0816010E081620EE04F00650D9260762
:1038AF0050DA220846DF500818FD0B0818DF6E8B20
:1038BF009C0F50900989EC13F020EE04F00650D9BC
:1038CF00260750DA22DFA27FD0FF0E89EC13F00813
:1038DF006E08C009F00A6A0B6A0C6A150ED89009B7
:1038EF00360A360B360C36E82EF9D706C0D9FF0745
:1038FF00C0DAFF09C0DEFF0AC0DEFF0BC0DEFF0C1F
:10390F00C0DEFFFF0E89EC13F0106E116A126A13FE
:10391F006AE00E1014086E096A0A6A0B6A0D0ED857
:10392F0090083609360A360B36E82EF9D706C0D975
:10393F00FF07C0DAFF0850DE120950DE120A50DE10
:10394F00120B50DE12030E1014086E096A0A6A0B6E
:10395F006A09C00BF008C00AF0096A086A06C0D9E4
:10396F00FF07C0DAFF0850DE120950DE120A50DEE0
:10397F00120B50DE12FF0E89EC13F0086E08C0090F
:10398F00F00A6A0B6A0C6A0BC00CF00AC00BF00944
:10399F00C00AF0096A06C0D9FF07C0DAFF0950DE76
:1039AF00120A50DE120B50DE120C50DE12FF0E897F
:1039BF00EC13F006C0D9FF07C0DAFFDE12000EDEEF
:1039CF0012DE12DE1237D0FF0E89EC13F0086E08EC
:1039DF00C009F00A6A0B6A0C6A030ED89009360AFE
:1039EF00360B360C36E82EF9D706C0D9FF07C0DAEA
:1039FF00FF09C0DEFF0AC0DEFF0BC0DEFF0CC0DE1A
:103A0F00FFFF0E89EC13F0086E050E096ED89008B3
:103A1F0032092EFCD7085006C0D9FF07C0DAFFDEE7
:103A2F0012000EDE12DE12DE12FF0E89EC13F0FF13
:103A3F000E89EC13F020EE05F00650D9260750DA68
:103A4F0022FF0E89EC13F00F0BDF6E20EE04F00651
:103A5F0050D9260750DA22DFB022D020EE05F0062B
:103A6F0050D9260750DA22DF50156E080E15640163
:103A7F00D0156E146A11D014500624086E000E076C
:103A8F0020096E060E0824D96E000E0920DA6EFF8B
:103A9F000E89EC13F0DF6E142A1550145CECE38BD7
:103AAF008C90EC13F0166E4A0402E14A6A010C1670
:103ABF00AE010C010E4A6E010C070E0001FF6F578D
:103ACF00D201016E5149E090D2AD0E046E060E0583
:103ADF006EFB0ED0EC13F03FD1AD0E046E060E054B
:103AEF006EDD0ED0EC13F037D1AD0E046E060E0561
:103AFF006ECB0ED0EC13F02FD1AD0E046E060E056B
:103B0F006EC50ED0EC13F027D1A40E046E040E0573
:103B1F006EC50ED0EC13F01FD1A40E046E040E056B
:103B2F006EC20ED0EC13F017D19A0E046E030E0571
:103B3F006EC10ED0EC13F00FD1A30E046E040E0560
:103B4F006EC00ED0EC13F007D19A0E046E030E0563
:103B5F006EC00ED0EC13F0FFD020EE01F02F50D935
:103B6F00263050DA22DF50300AAFE0010AB5E00309
:103B7F000ABBE0010AC1E0070AC7E0010ACDE00372
:103B8F000AD3E0010AD9E00F0ADFE02ED201016E5D
:103B9F005101E02AD22F28016E000E3020026E0252
:103BAF000E036EC20E046E6CEC17F0000901E11CDF
:103BBF00D2030E2F24016E000E3020026E020E0370
:103BCF006EC60E046E6CEC17F0000901E10DD20504
:103BDF000E2F24016E000E3020026E020E036ECAED
:103BEF000E046E6CEC17F0000901E1FED1C6C004A3
:103BFF00F0CAC005F00001C251D0EC13F0ACD02FC9
:103C0F0028016E000E3020026E020E036ECE0E04DF
:103C1F006E6CEC17F0000901E1E7D10001CE51C144
:103C2F00EC13F00001C06FC0515DEC14F094D02F75
:103C3F0028016E000E3020026E020E036ED20E04AB
:103C4F006E6CEC17F0000901E1CFD1030E2F2401A8
:103C5F006E000E3020026E020E036ED60E046E6CD6
:103C6F00EC17F0000901E1C0D1D6C002F00001D27B
:103C7F0051A6EC13F070D0560E05EC15F0010E5D49
:103C8F00EC14F0000E5DEC14F066D0760E05EC151A
:103C9F00F0010E5DEC14F0070E5DEC14F02D0E0527
:103CAF00EC15F0630E05EC15F0610E05EC15F072D6
:103CBF000E05EC15F0690E05EC15F0730E05EC15FD
:103CCF00F0740E05EC15F0610E05EC15F044D04EB6
:103CDF000E05EC15F016EC14F0000925E00A0EF6AF
:103CEF006E030EF76EF86A0800F55005EC15F00C30
:103CFF000EF66E030EF76EF86A0800F55005EC1518
:103D0F00F00E0EF66E030EF76EF86A0800F550050A
:103D1F00EC15F0100EF66E030EF76EF86A0800F54C
:103D2F005005EC15F018D007680868096A0A6A048C
:103D3F000E0B6EB8EC14F00FD001016E5101E05470
:103D4F00D1E00E026E036A0F0EE0EC13F082EC135B
:103D5F00F0010E01016E6F0D0E0001FF6F45D101D5
:103D6F00016E5101E041D1E00E026E400E036E0F65
:103D7F000EE0EC13F0EDD701016E5101E035D1E00B
:103D8F000E026E600E036E0F0EE0EC13F0020EE1EA
:103D9F00D701016E5101E128D1E00E026E800E03B2
:103DAF006E0F0EE0EC13F001016E6BD5D701016EB3
:103DBF000501E01AD12FC013F030C014F0D4EC1766
:103DCF00F0000901E111D12FC0D9FF30C0DAFF5A3D
:103DDF000EDF6003D005EC15F0BED77A0E05EC159B
:103DEF00F0BAD72D0EC1EC13F00001FE6FC16BFEC0
:103DFF00B1C185FEC031F0C00E311601E0C187FEA2
:103E0F00C031F0180E311601E0C18BFEBBC18F46D9
:103E1F000E05EC15F00001C1515DEC14F09CD72F8D
:103E2F0028016E000E3020026E010E036EDA0E04B2
:103E3F006E6CEC17F0000901E1D7D00001DA51DB0D
:103E4F0011DC11DD11010ED8B4000E4D6E84D701B7
:103E5F00016E5101E0C9D02F28016E000E302002F3
:103E6F006E020E036EDE0E046E6CEC17F00009018D
:103E7F00E1BBD0030E2F24016E000E3020026E0224
:103E8F000E036EE20E046E6CEC17F0000901E1AC4C
:103E9F00D0050E2F24016E000E3020026E020E038D
:103EAF006EE60E046E6CEC17F0000901E19DD00771
:103EBF000E2F24016E000E3020026E020E036EEAEA
:103ECF000E046E6CEC17F0000901E18ED0E2C00415
:103EDF00F0E6C005F0EAC006F00001DE51DEEC149A
:103EEF00F03AD701016E5101E07FD02F28016E000B
:103EFF000E3020026E020E036EEE0E046E6CEC1787
:103F0F00F0000972E0030E2F24016E000E30200224
:103F1F006E020E036EF20E046E6CEC17F000096465
:103F2F00E0050E2F24016E000E3020026E020E03EC
:103F3F006EF60E046E6CEC17F0000956E0070E2FAC
:103F4F0024016E000E3020026E020E036EFA0E0474
:103F5F006E6CEC17F0000948E0F2C004F0F6C005F3
:103F6F00F0FAC006F00001EE519CEC15F0F4D62FDC
:103F7F00C0D9FF30C0DAFFDF50430A01E109D7058E
:103F8F000A01E12FD7010A01E13AD60B0A01E1F349
:103F9F00D6010AA7E0030A01E19AD6010A01E1CC92
:103FAF00D61D0A01E103D7010A01E18AD5070A01EB
:103FBF00E1FDD6020A01E15FD6010A01E138D60D13
:103FCF000A01E12DD7360A01E1CAD6010A01E13F04
:103FDF00D71F0A01E1EBD6010A01E1D8D5070A0183
:103FEF00E1E5D6020A01E151D60001FF5105EF15B7
:013FFF00F0D1
:00000001FF
