:10100000C3EF14F00009024300020100803209041A
:101010000000010202010005240010010424020264
:1010200005240600010524010001070582030800CC
:101030000209040100020A0000000705030208007B
:10104000000705810240000036034D00690063007F
:1010500072006F0063006800690070002000540097
:101060006500630068006E006F006C006F00670031
:1010700079002C00200049006E0063002E00120150
:10108000000202000008D8040A0000010102000169
:101090000E03550053004200740069006E00040303
:0410A000090400003F
:10281800FF0317EC14F0840ED56E120040C001F0CF
:1028280041C002F01200D66AD76A3E6A3F6A406A1F
:10283800416A1200016E01C0C9FFC7A0FED7C95086
:1028480012008B9CB00E1EEC14F0FF0E1EEC14F060
:10285800026E8B8C025012008B9CA00E1EEC14F0A2
:10286800FF0E1EEC14F0026E8B8C02501200036EE9
:102878008B9C020E1EEC14F003501EEC14F0025058
:102888001EEC14F08B8C1200026E8B9C030E1EEC57
:1028980014F002501EEC14F0FF0E1EEC14F0036E40
:1028A8008B8C03501200046E8B9C050E1EEC14F0EA
:1028B80004501EEC14F002501EEC14F003501EECF1
:1028C80014F08B8C1200066E07D00650D96EDA6AA7
:1028D800DF5075EC15F0062A0650D96EDA6ADF501B
:1028E800D8B41200F2D7066E06C002F02A0E3BECEE
:1028F80014F004C002F0290E3BEC14F005C002F0FD
:10290800280E3BEC14F012004950016E026AD89070
:1029180001360236D89001360236280E0124D96EC7
:10292800020E0220DA6E0201DFAE010C000C4850E4
:10293800016E026AD89001360236D8900136023606
:10294800100E0124D96E020E0220DA6E0201DFAEEB
:10295800010C000C016AF66A030EF76E0800F550C8
:10296800120A0BE1010EF66E030EF76EF86A080004
:10297800F550030A02E1010E016E01501200010137
:10298800EE6B00EE34F01D0EEE6AE806FDE1190E5E
:10299800F66E280EF76E000EF86E0900F5CF51F0AE
:1029A800000EF86E000197EF18F00C500A5C0D50FD
:1029B8000B5804E20AC00CF00BC00DF00CC046F036
:1029C8000DC047F007C03BF008C03CF009C03DF01F
:1029D800F8EC16F00C5012003E50D65C016E3F50D9
:1029E800D758026E780E015C010E0258D8A012006A
:1029F800770E3E26010E3F22404A412A610E405C76
:102A0800EA0E4158D8A01200406A416A1200066EC8
:102A180006380F0B076E090E076402D0370E01D077
:102A2800300E0726075075EC15F006500F0B076E91
:102A3800090E076402D0370E01D0300E0726075062
:102A480075EC15F012000B500D0FD96EDA6ADF6ABB
:102A580019D007500F0B216E090E216402D0370ED2
:102A680001D0300E21260B500D0FD96EDA6A21C025
:102A7800DFFF040E0C6ED8900A3209320832073292
:102A88000C2EF9D70B060B28E4E10D0E67EC14F0B9
:102A98001200076E071C026E200E3BEC14F0041C9B
:102AA800E00B026E210E3BEC14F0026A220E3BECA6
:102AB80014F0026A230E3BEC14F0051C026E240E7F
:102AC8003BEC14F0061CE00B026E250E3BEC14F0F8
:102AD800026A260E3BEC14F0026A270E3BEC14F057
:102AE8001200056E4850036E046AD8900336043607
:102AF800D89003360436100E0324D96E020E042033
:102B0800DA6E0201DFBE12004850400D600E036EFF
:102B1800020E046EF3500326F45004224D50032491
:102B2800D96E000E0420DA6E05C0DFFF4B6A4D2A0D
:102B3800400E4D18D8B4A2EC15F0120042504310C4
:102B4800D8B412004D50D8B412004850016E026A31
:102B5800D89001360236D89001360236100E01247C
:102B6800D96E020E0220DA6E0201DFBE1200485052
:102B7800016E026AD89001360236D89001360236C4
:102B8800110E0124D96E020E0220DA6E4DC0DFFF4D
:102B98004D6A485005E1C80E106F010E486E010CD1
:102BA800880E146F486A1200076E07C002F0000E04
:102BB8003BEC14F00450E00B026E010E3BEC14F0F9
:102BC80007C002F0040E3BEC14F00450E00B0809B7
:102BD800026E050E3BEC14F005C002F0080E3BEC4B
:102BE80014F00650E00B026E090E3BEC14F005C021
:102BF80002F0100E3BEC14F00650E00B0809026ED0
:102C0800110E3BEC14F0026A140E3BEC14F0026A4D
:102C1800150E3BEC14F0026A180E3BEC14F0026A35
:102C2800190E3BEC14F01200400EC76E210EC66E52
:102C3800C950046A9388949C949E939C8B8C043E00
:102C4800FED78B9CC00E1EEC14F08B8C043EFED776
:102C5800850E026E0F0E3BEC14F0026A600E3BEC20
:102C680014F0026A700E3BEC14F0026A200E3BEC82
:102C780014F0026A210E3BEC14F0026A220E3BECBF
:102C880014F0026A230E3BEC14F0026A240E3BECAB
:102C980014F0026A250E3BEC14F0026A260E3BEC97
:102CA80014F0026A270E3BEC14F0030E026E2B0E92
:102CB8003BEC14F01200800E0201006F080E016F49
:102CC800300E026F020E036F046B080E056F380E8C
:102CD800066F020E076F106B400E116F600E126FB9
:102CE800020E136F400E146F156FA00E166F020EB2
:102CF800176F206B080E216F400E226F020E236F94
:102D0800400E246F080E256F480E266F020E276F9F
:102D1800800E286F080E296F500E2A6F020E2B6F37
:102D2800800E2C6F080E2D6F580E2E6F020E2F6F0F
:102D3800160E0F01536F1A0E546F556F1C0E566FF7
:102D4800170E616E080E646E12004950080D500E81
:102D5800016E020E026EF3500126F45002224F500B
:102D68000124D96E000E0220DA6EDF50046E4F2A5D
:102D78004950016E026AD89001360236D890013661
:102D88000236290E0124D96E020E0220DA6E4F5047
:102D9800DE1828E14950016E026AD89001360236E1
:102DA800D89001360236290E0124D96E020E02206F
:102DB800DA6E080EDF6E4950016E026AD89001364D
:102DC8000236D89001360236280E0124D96E020E3A
:102DD8000220DA6E800EDF6E4F6A4950010ED8A4C9
:102DE800000E496E0450120046504710D8B4120025
:102DF80046C004F047C005F0055003E1090E045C25
:102E080003E3056A080E046E066A2ED08E0E3B1880
:102E180014E1100E3C1811E1000E3D18D8A40DD095
:102E2800AEEC14F0000909E0380E0624D96EDA6A0F
:102E3800020EDA22030EDF6E0FD03BC0F6FF3CC055
:102E4800F7FF3DC0F8FF380E0624D96EDA6A020E85
:102E5800DA220800F5CFDFFF3B2A000E3C223D2294
:102E68004606D8A04706062A0650026E036A045092
:102E7800025C05500358CAE304C005F2020104AD20
:102E880003D0880E046F880CC80E046FC80C116E2E
:102E980055D07E0E076E0750D8A4100E086E085045
:102EA800D8A4000E096E38D0050E076E0750D8A4B6
:102EB800100E086E0850D8A4000E096E0B6A430E57
:102EC8002DD09E0E076E0750D8A4100E086E08501D
:102ED800D8A4000E096E0B6A040E20D0480E076EA7
:102EE8000750D8A4100E086E0850D8A4000E096E1A
:102EF8000B6A360E13D0900E076E0750D8A4100E2A
:102F0800086E0850D8A4000E096E0B6A0E0E06D083
:102F1800076A030E086E096A0B6A120E0A6E0FC062
:102F28000CF010C00DF0D9EF14F00E50CAE0010AF1
:102F3800D5E0030AE0E0010AEBE0000C1150010AB9
:102F4800A8E0030AB1E0010AF0E0000C0450D96ED1
:102F5800DA6ADE6ADE6ADE6ADD6A5CD001C0D9FF41
:102F680002C0DAFFDF5001E1000C0450D96EDA6AC2
:102F7800040ED890DE36DE36DE36DD36D906D906C2
:102F8800E82EF7D701C0D9FF02C0DAFF2F0EDF64A1
:102F980009D001C0D9FF02C0DAFF3A0EDF6002D0C3
:102FA800D00E1FD001C0D9FF02C0DAFF400EDF6487
:102FB80009D001C0D9FF02C0DAFF470EDF6002D096
:102FC800C90E0FD001C0D9FF02C0DAFF600EDF645E
:102FD800000C01C0D9FF02C0DAFF670EDF60000CE9
:102FE800A90E056E066801C0D9FF02C0DAFFDF50DE
:102FF800076E086A05500726065008220450D96E45
:10300800DA6A0750DE260850DE22000EDE22DE22B3
:10301800014A022A03060328A1E1010C010E176EDA
:1030280013C0D9FF14C0DAFF720EDE1808E013C00F
:10303800D9FF14C0DAFF520EDE18D8A4176A17B0E9
:1030480002D0239001D0238013C0D9FF14C0DAFF27
:103058005A0EDF6003D02382080E02D02392030E9B
:10306800196E1328016E000E1420026E19C003F0A9
:103078001B0E046EAAEC17F0000901E1000C1BC03E
:103088001FF01CC020F01DC021F01EC022F01950F6
:103098001324156E000E1420166E1528016E000EEE
:1030A8001620026E010E036E1B0E046EAAEC17F0BA
:1030B8000009E4E01BC024F023B032D024C018F08B
:1030C800080E186401D0186E1A6A27D01A50020D1B
:1030D80013C015F014C016F0F3501526F45016223C
:1030E80019501526000E1622020E1524016E000E28
:1030F8001620026E020E036E1B0E046EAAEC17F069
:103108000009BCE01AC015F0060E152615501F0F51
:10311800D96EDA6A1BC0DFFF1A2A18501A5CD6E388
:103128001F0E20EF1BF018EC16F0300ED36E7E6ADF
:103138007F6A939A8A9A0DEC14F05FEC16F00101FD
:10314800EC6BEA6BE86BE96BED6BD6CFE4F1D7CFAC
:10315800E5F1E66B42EC19F0F0EC14F00101EE51E8
:10316800D8A482B42DD0080EEA612AD0E851100DF7
:10317800640EF324056E010EF420066E37EC1CF085
:1031880000091EE00101E829070BE86FEA2B18D0B7
:10319800E951100D640EF324016E010EF420026E45
:1031A800ED0E036E010E046E14EC1AF075EC15F0BA
:1031B8000101ED2905E1ED6BE929070BE96FEA0744
:1031C8009BEC14F000092AE00101EA5127E0E0D75E
:1031D800A9EC16F00101EB6F0D0EEB1910E1000ED2
:1031E800EC25D96EDA6A010EDA22DF6A000E2F6E3C
:1031F800010E306E7BEC1DF00101EC6B0FD00A0E56
:10320800EB190CE0000EEC25D96EDA6A010EDA2211
:10321800EBC1DFFF630EEC6101D0EC2B88EC14F0FE
:10322800000903E00101ED51D3E00101E451D65C4E
:10323800326EE551D758336E7D0E325C920E33589C
:1032480005E37C0EE427920EE523E62B010EE76FDB
:10325800E6C132F00F0E321603E0EE51D8B4E76B38
:10326800E7B102D08A9A01D08A8A80B673D7646A95
:10327800FA0E00F0E82EFDD7FF006CD74B2A4B045E
:10328800126EC80E126402D0A2EC15F062A61200EB
:10329800635001E0B8D002010041E8423F0B0F0B38
:1032A8000D0A01E096D0046B046B30C212F0600E78
:1032B800121643E057D032C20EF03751126E365113
:1032C8000F6E12C010F033514BEC17F0000901E0FB
:1032D80094D00201056BCC0E04D032C250F008D055
:1032E800C80E046F8AD032C24EF0436A010E426E95
:1032F800056BF6D74EC038F2010E47D0386BFCD7B5
:1033080030511F0B020A05E144C038F245C039F2BA
:1033180002D0386B396B020E38D030511F0B020ABD
:10332800E7E13251E5E1010E446EE2D730511F0B5F
:10333800020AD8B4446A056BD3D73151E1E0010AD7
:10334800F5E0020AEAE0060AC8E0030AB4E00E0A59
:10335800D1E0010AC8E0030AD1E01B0AECE0030A45
:10336800D8E0B7D73051600B200A28E046D0146A5D
:10337800380E1424D96EDA6A020EDA22DF6A142AA9
:10338800070E1464F5D7080E17D0056FA9D7010EDC
:103398004A6EAED7156A1550340FD96EDA6A380EF0
:1033A8001524E16EE26A020EE222DFCFE7FF152A5A
:1033B800060E1564F0D7070E0201E7D73151BBE0BE
:1033C800010AD5E0210AE3E0010AE4E0030AB3E0D8
:1033D80080D74A5012E0166A300E1624D96EDA6A7F
:1033E800020EDA221650340FE16EE26ADFCFE7FFF1
:1033F800162A060E1664F0D74A6A080E0201016FF3
:10340800800E006F0AD0040E631807E1505003E0E5
:1034180050C05CFF506AF8EC16F06498629612008F
:1034280003C0D9FF04C0DAFFDF500E6E03C0D9FF16
:1034380004C0DAFFDF5023E120EE04F00150D92662
:103448000250DA22DFA20ED0010E0E6E20EE04F03A
:103458000150D9260250DA22DFA002D0520E0DD038
:10346800540E0BD0060E0E6E20EE04F00150D92635
:103478000250DA22720EDFA0740E0F6ED5D003C090
:10348800D9FF04C0DAFF090EDF602BD003C0D9FFD3
:1034980004C0DAFFDF50056E05040B6E01C009F0A9
:1034A80002C00AF0D8900B30095C056E000E0A586D
:1034B800066E030E0524D96E000E0620DA6EDF5064
:1034C8000F6E0BB003D00F3A0F0E0F160F0E0F161C
:1034D800090E0F6402D0370E01D0300E0F260E2AC7
:1034E800A3D003C0D9FF04C0DAFF0A0EDF6024D0DE
:1034F80020EE05F00150D9260250DA22DF500F6E77
:103508000F0E0F16090E0F6402D0370E01D0300EC1
:103518000F2620EE05F00150D9260250DA22DF509E
:1035280008E020EE04F00150D9260250DA22DFA08C
:10353800D6D71A0E0E6E78D003C0D9FF04C0DAFFB2
:103548001A0EDF603ED003C0D9FF04C0DAFFDF5097
:10355800F60F0C6ED8900C300124056E000E022078
:10356800066E060E0524D96E000E0620DA6EDF50B0
:103578000F6E0CB003D00F3A0F0E0F160F0E0F166A
:10358800090E0F6402D0370E01D0300E0F260E2A16
:1035980020EE05F00150D9260250DA22DF50020D44
:1035A800F60E056E06680E50076E086A0550072667
:1035B80006500822F350071837E1F4500818B9E00C
:1035C80033D04C502EE003C0D9FF04C0DAFF1E0EE2
:1035D800DF6027D003C0D9FF04C0DAFFDF50E60F51
:1035E8000D6E020E0D600FD020EE0EF00150D926A0
:1035F8000250DA22DECF05F0DDCF06F006C005F076
:10360800066A055007D020EE0EF00150D926025068
:10361800DA22DF500F6E0DB059D70F3A0F0E0F1682
:1036280055D70D0E0F6E0E6803C0D9FF04C0DAFF20
:103638000EC0DFFF0F501200126E30EC14F00D6E4A
:103648001250D96EDA6A050ED926DF50106E080EB0
:10365800106429D0106E27D0500E0F6E040E0E6E17
:10366800030E1CD0400E0F6E020E0E6E31D0300EBF
:103678000F6E0E6A2DD0500E0F6E040E0E6E515046
:103688000FE1030E026E036E400E57EC14F0030EAA
:10369800026E036E300E57EC14F0020E516E18D005
:1036A800510616D0000C0D50540B056E066A0650D4
:1036B800F9E10550D1E0040ADEE0140AD8E0040A72
:1036C800DAE0540ACFE0040ACDE0140AD0E0000C96
:1036D8008B9C0E5040091EEC14F01250D96EDA6A19
:1036E800040ED926DFA263D01250D96EDA6ADECF73
:1036F80005F0DECF06F0DECF07F0DECF08F0160EBD
:1037080005D0D8900832073206320532E82EF9D7AC
:1037180005501EEC14F01250D96EDA6ADECF05F0AF
:10372800DECF06F0DECF07F0DECF08F0110E05D0B1
:10373800D8900832073206320532E82EF9D7030E40
:1037480005161250D96EDA6ADECF09F0DECF0AF01C
:10375800DECF0BF0DECF0CF00E0E05D0D8900C3279
:103768000B320A320932E82EF9D70950E00B05105E
:1037780008091EEC14F01250D96EDA6ADECF05F093
:10378800DECF06F0DECF07F0DECF08F006C005F08A
:1037980007C006F008C007F0086A05501EEC14F0D0
:1037A8001250D96EDA6ADF501EEC14F02BD012508A
:1037B800D96EDA6ADECF05F0DECF06F0DECF07F08D
:1037C800DECF08F0040E05D0D89008320732063252
:1037D8000532E82EF9D705501EEC14F01250D96EB8
:1037E800DA6ADF50056E050E066ED8900536062E8D
:1037F800FCD705501EEC14F0000E1EEC14F0000E61
:103808001EEC14F01250D96EDA6A040ED926DFA025
:103818000AD01250D96EDA6A050ED926DF5040094F
:103828001EEC14F017D01250D96EDA6A050ED9269C
:10383800DF501EEC14F0116A0AD012501124D96E10
:10384800DA6A060ED926DF501EEC14F0112A105041
:10385800115CF3E38B8C00F051500809026E0F5095
:103868003BEC14F0010C25EC14F0136E13AC02D0F1
:10387800126A04D013AE000C040E126E12EC14F08F
:1038880020EE0EF00550D9260650DA2201C0DEFFE0
:1038980002C0DDFF13C007F0D8900732D890073276
:1038A800D8900732010E071620EE04F00550D926ED
:1038B8000650DA22DF500718FE0B0718DF6E13C018
:1038C80007F0073A0F0E0716010E071620EE04F050
:1038D8000550D9260650DA220746DF500718FD0B97
:1038E8000718DF6E8B9C125090091EEC14F020EE26
:1038F80004F00550D9260650DA22DFA27FD0FF0E49
:103908001EEC14F0076E07C008F0096A0A6A0B6A11
:10391800150ED890083609360A360B36E82EF9D730
:1039280005C0D9FF06C0DAFF08C0DEFF09C0DEFF08
:103938000AC0DEFF0BC0DEFFFF0E1EEC14F00C6E9B
:103948000D6A0E6A0F6AE00E0C14076E086A096A9F
:103958000A6A0D0ED8900736083609360A36E82E58
:10396800F9D705C0D9FF06C0DAFF0750DE120850A4
:10397800DE120950DE120A50DE12030E0C14076E16
:10398800086A096A0A6A08C00AF007C009F0086AE2
:10399800076A05C0D9FF06C0DAFF0750DE120850D3
:1039A800DE120950DE120A50DE12FF0E1EEC14F071
:1039B800076E07C008F0096A0A6A0B6A0AC00BF0AA
:1039C80009C00AF008C009F0086A05C0D9FF06C096
:1039D800DAFF0850DE120950DE120A50DE120B50D0
:1039E800DE12FF0E1EEC14F005C0D9FF06C0DAFF88
:1039F800DE12000EDE12DE12DE1237D0FF0E1EECD3
:103A080014F0076E07C008F0096A0A6A0B6A030E09
:103A1800D890083609360A360B36E82EF9D705C08D
:103A2800D9FF06C0DAFF08C0DEFF09C0DEFF0AC002
:103A3800DEFF0BC0DEFFFF0E1EEC14F0076E050E56
:103A4800086ED8900732082EFCD7075005C0D9FF5A
:103A580006C0DAFFDE12000EDE12DE12DE12FF0EE4
:103A68001EEC14F0FF0E1EEC14F020EE05F00550CD
:103A7800D9260650DA22FF0E1EEC14F00F0BDF6E6B
:103A880020EE04F00550D9260650DA22DFB022D005
:103A980020EE05F00550D9260650DA22DF50116EC7
:103AA800080E116401D0116E106A11D0105005244F
:103AB800076E000E0620086E060E0724D96E000E4B
:103AC8000820DA6EFF0E1EEC14F0DF6E102A11507B
:103AD800105CECE38B8C1250010ED8A4020E126E0F
:103AE80012C002F0036A2C0E57EC14F0010C070EFA
:103AF80000019F6F3FD20101EE5149E078D2AD0E2F
:103B0800046E060E056EFB0E77EC14F027D1AD0E91
:103B1800046E060E056EDD0E77EC14F01FD1AD0EA7
:103B2800046E060E056ECB0E77EC14F017D1AD0EB1
:103B3800046E060E056EC50E77EC14F00FD1A40EB8
:103B4800046E040E056EC50E77EC14F007D1A40EB2
:103B5800046E040E056EC20E77EC14F0FFD09A0EB8
:103B6800046E030E056EC10E77EC14F0F7D0A30EA9
:103B7800046E040E056EC00E77EC14F0EFD09A0EAA
:103B8800046E030E056EC00E77EC14F0E7D020EE3D
:103B980001F02F50D9263050DA22DF50300AAFE03A
:103BA800010AB5E0030ABBE0010AC1E0070AC7E061
:103BB800010ACDE0030AD3E0010AD9E00F0ADFE0E9
:103BC80016D20101EE5101E012D22F28016E000E2B
:103BD8003020026E020E036E620E046EAAEC17F01D
:103BE800000901E104D2030E2F24016E000E3020DB
:103BF800026E020E036E660E046EAAEC17F0000940
:103C080001E1F5D1050E2F24016E000E3020026E61
:103C1800020E036E6A0E046EAAEC17F0000901E1A9
:103C2800E6D166C004F06AC005F00001625177EC85
:103C380014F094D02F28016E000E3020026E020E70
:103C4800036E6E0E046EAAEC17F0000901E1CFD1E5
:103C580000016E5148EC14F00001606F60510BECEC
:103C680015F07CD02F28016E000E3020026E020E57
:103C7800036E720E046EAAEC17F0000901E1B7D1C9
:103C8800030E2F24016E000E3020026E020E036E0A
:103C9800760E046EAAEC17F0000901E1A8D176C0EF
:103CA80002F0000172513BEC14F058D0560E75EC3E
:103CB80015F0010E0BEC15F0000E0BEC15F04ED0C4
:103CC800760E75EC15F0010E0BEC15F0060E0BECEC
:103CD80015F044D04E0E75EC15F0AEEC14F000095A
:103CE80025E00A0EF66E030EF76EF86A0800F55026
:103CF80075EC15F00C0EF66E030EF76EF86A0800F8
:103D0800F55075EC15F00E0EF66E030EF76EF86AA8
:103D18000800F55075EC15F0100EF66E030EF76EF0
:103D2800F86A0800F55075EC15F018D007680868AF
:103D3800096A0A6A040E0B6E27EC15F00FD0010110
:103D4800EE5101E054D1E00E026E036A0F0E57ECFB
:103D580014F017EC14F0010E0101EE6F0D0E0001C6
:103D68009F6F45D10101EE5101E041D1E00E026E95
:103D7800400E036E0F0E57EC14F0EDD70101EE5113
:103D880001E035D1E00E026E600E036E0F0E57ECA7
:103D980014F0020EE1D70101EE5101E128D1E00E45
:103DA800026E800E036E0F0E57EC14F00101EE6BDD
:103DB800D5D70101EE0501E01AD12FC013F030C0AC
:103DC80014F012EC18F0000901E111D12FC0D9FF4D
:103DD80030C0DAFF5A0EDF6003D075EC15F0BED79D
:103DE8007A0E75EC15F0BAD72D0E48EC14F00001D8
:103DF8009E6F616B9EB161859EC031F0C00E311619
:103E0800D8A461879EC031F0180E3116D8A4618BF2
:103E18009EBB618F460E75EC15F0000161510BECED
:103E280015F09CD72F28016E000E3020026E010E6F
:103E3800036E7A0E046EAAEC17F0000901E1D7D0E0
:103E480000017A517B117C117D11010ED8B4000E4E
:103E58004C6E84D70101EE5101E0C9D02F28016EC4
:103E6800000E3020026E020E036E7E0E046EAAEC67
:103E780017F0000901E1BBD0030E2F24016E000EDC
:103E88003020026E020E036E820E046EAAEC17F04A
:103E9800000901E1ACD0050E2F24016E000E302080
:103EA800026E020E036E860E046EAAEC17F000096D
:103EB80001E19DD0070E2F24016E000E3020026E06
:103EC800020E036E8A0E046EAAEC17F0000901E1D7
:103ED8008ED082C004F086C005F08AC006F00001CA
:103EE8007E514DEC15F03AD70101EE5101E07FD03B
:103EF8002F28016E000E3020026E020E036E8E0E09
:103F0800046EAAEC17F0000972E0030E2F24016E6C
:103F1800000E3020026E020E036E920E046EAAECA2
:103F280017F0000964E0050E2F24016E000E302002
:103F3800026E020E036E960E046EAAEC17F00009CC
:103F480056E0070E2F24016E000E3020026E020E7E
:103F5800036E9A0E046EAAEC17F0000948E092C0AE
:103F680004F096C005F09AC006F000018E51D8EC16
:103F780015F0F4D62FC0D9FF30C0DAFFDF50430A5E
:103F880001E109D7050A01E12FD7010A01E152D65B
:103F98000B0A01E1F3D6010AA7E0030A01E19AD668
:103FA800010A01E1CCD61D0A01E103D7010A01E1AA
:103FB800A2D5070A01E1FDD6020A01E177D6010A76
:103FC80001E150D60D0A01E12DD7360A01E1CAD622
:103FD800010A01E13FD71F0A01E1EBD6010A01E11D
:103FE800F0D5070A01E1E5D6020A01E169D6000128
:0A3FF8009F5175EC15F01200FFFF59
:00000001FF
