:10100000F3EF0FF0090243000201008032090400EF
:10101000000102020100052400100104240202055F
:1010200024060001052401000107058203080002CF
:1010300009040100020A000000070503020800007D
:101040000705810208000036034D00690063007245
:10105000006F0063006800690070002000540065A4
:1010600000630068006E006F006C006F006700791D
:10107000002C00200049006E0063002E00120100C9
:101080000202000008D8040A000001010200010E5B
:1010900003550053004200740069006E0004030908
:0210A00004004A
:101F5400D5EC0FF0840ED56E12004BC001F04CC0CE
:101F640002F012000201020118AF01D002D0010EEA
:101F740001D0000E00D0120001C0C9FF00D0C7A0DC
:101F840001D001D0FCD700D0C95000D01200365087
:101F9400186E196A1A6A1B6A376E020E1C6E375065
:101FA40012EC11F01200000ED76E000ED66E000E69
:101FB4004A6E000E496E000E4C6E000E4B6E1200FF
:101FC4008B9C046E020E016E0450BEEC0FF002C036
:101FD40001F0BEEC0FF003C001F0BEEC0FF08B8CEF
:101FE400120001EE00F0810EEE6AE806FDE100EE5B
:101FF4003FF0190EEE6AE806FDE1000EF86E0001EE
:1020040019EF17F08B9C026EA00E016E0250BEEC0D
:102014000FF0026EFF0E016E0250BEEC0FF0036E65
:102024008B8C035000D012008B9C026EB00E016E9C
:102034000250BEEC0FF0026EFF0E016E0250BEECB9
:102044000FF0036E8B8C035000D012008B9C056E36
:10205400050E016E0550BEEC0FF002C001F0BEEC9F
:102064000FF003C001F0BEEC0FF004C001F0BEECB1
:102074000FF08B8C12008B9C036E030E016E0350C9
:10208400BEEC0FF002C001F0BEEC0FF0036EFF0EC9
:10209400016E0350BEEC0FF0046E8B8C045000D024
:1020A40012000BD016C0D9FF17C0DAFFDF50146E30
:1020B4009DEC10F0164A172A00D016C0D9FF17C09D
:1020C400DAFFDF50D8A401D001D0ECD700D0120041
:1020D400086E2A0E026E085005C003F0E2EC0FF001
:1020E400086E290E026E085006C003F0E2EC0FF0F1
:1020F400086E280E026E085007C003F0E2EC0FF0E1
:1021040012000A50085C0B500958D8B001D001D015
:1021140004D008C00AF009C00BF00AC04FF00BC08D
:1021240050F006C046F007C047F0486AAEEC11F024
:102134000A5000D012005350800AD8A401D001D014
:1021440002D01CD01BD05450010D0101000EF32409
:10215400D96E0101010EF420DA6E14C0DFFF542A97
:102164005450800AD8A401D001D005D0156E000EB9
:10217400546E155000D0532A04EC1AF0120002D009
:1021840001D000D05650010D0201A00EF324D96EE7
:102194000201020EF420DA6EDF50026E562A565007
:1021A400020122EE19F0DF6201D001D00DD0080E39
:1021B40002010201196F800E02010201186F016E03
:1021C400000E566E015000D0025000D0120049C0DB
:1021D40001F04AC002F0011E021E014A022AD65032
:1021E4000126D7500222780E015C010E0258D8A0B5
:1021F40001D001D014D0770E4926010E4A224B4A51
:102204004C2A610E4B5CEA0E4C58D8A001D001D088
:1022140006D0000E4C6E000E4B6E01D000D01200A2
:102224001C50010D210EF324D96E000EF420DA6E39
:10223400000EDF6E34D018500F0B356E090E356466
:1022440001D001D004D03550370F356E04D035504D
:10225400300F356E00D01C50010D210EF324D96EC1
:10226400000EF420DA6E35C0DFFF18C01DF019C06F
:102274001EF01AC01FF01BC020F0050E05D0D89028
:1022840020321F321E321D32E82EF9D720C01BF037
:102294001FC01AF01EC019F01DC018F000D01C0693
:1022A4001C28D8A401D001D0C6D700D0000E176EC8
:1022B400210E166E53EC10F01200096E200E026E01
:1022C40009500550FF0A036EE2EC0FF0096E210E6F
:1022D400026E09500650FF0AE00B036EE2EC0FF0A9
:1022E400096E220E026E09500A6E000E036E0A5029
:1022F400E2EC0FF0096E230E026E09500A6E000E16
:10230400036E0A50E2EC0FF0096E240E026E0950BF
:102314000750FF0A036EE2EC0FF0096E250E026E01
:1023240009500850FF0AE00B036EE2EC0FF0096E4F
:10233400260E026E09500A6E000E036E0A50E2EC7D
:102344000FF0096E270E026E09500A6E000E036E1E
:102354000A50E2EC0FF0120050504F10D8A401D0F4
:1023640001D002D052D051D04FC004F050C005F07B
:10237400090E045C000E0558D8A001D001D005D088
:10238400000E056E080E046E00D0016E000E036E82
:1023940001501ED046C0F6FF47C0F7FF48C0F8FF03
:1023A4000350010D0201880EF324D96E0201020EBE
:1023B400F420DA6E0800F5CFDFFF010E4626000E8A
:1023C4004722000E48224F06D8A05006032A00D008
:1023D4000350016E026A0450015C05500258D8A0F3
:1023E40001D001D0D7D704C005F20201020104AD27
:1023F40001D001D005D0880E02010201046F05D07E
:10240400C80E02010201046F00D01200800E020106
:102414000201006F080E02010201016F800E020129
:102424000201026F020E02010201036F000E02019B
:102434000201046F080E02010201056F880E0201F9
:102444000201066F020E02010201076F400E020133
:1024540002010C6F080E020102010D6F900E0201C1
:1024640002010E6F020E020102010F6F000E020143
:102474000201146F080E02010201156F980E020189
:102484000201166F020E02010201176F800E020193
:102494000201186F080E02010201196FA00E020159
:1024A40002011A6F020E020102011B6F160E0F01C8
:1024B4000F01536F1A0E0F010F01546F1A0E0F0103
:1024C4000F01556F1C0E0F010F01566F140E616E34
:1024D400080E646E1200536601D001D002D066D09B
:1024E40065D04E504D10D8A401D001D002D05ED09A
:1024F4005DD0020102010CAF01D001D002D056D050
:1025040055D053C004F0070E046401D001D005D0A7
:10251400016E070E046E015000D05350000854247D
:10252400800F7F0B036E016E000E026E015024D0EB
:102534000350010D0101000EF324D96E0101010EB7
:10254400F420DA6E0250010D0201900EF324E16EC4
:102554000201020EF420E26EDFCFE7FF032A0350EC
:10256400800AD8A401D001D005D0016E000E036EFC
:10257400015000D0022A00D00450025CD8A001D03F
:1025840001D0D6D704C00DF20450535E02010201FB
:102594000CAD01D001D005D0880E020102010C6FF0
:1025A40005D0C80E020102010C6F00D012005ED0EB
:1025B400100E076E7D0E066E000E096E120E086E6A
:1025C4000EC00AF00FC00BF083EC10F05CD05BD0AF
:1025D400100E076E040E066E000E096E430E086E92
:1025E4000EC00AF00FC00BF083EC10F04CD04BD0AF
:1025F40031D0100E076E9D0E066E000E096E040E8D
:10260400086E0EC00AF00FC00BF083EC10F03BD044
:102614003AD0100E076E470E066E000E096E360E87
:10262400086E0EC00AF00FC00BF083EC10F02BD034
:102634002AD0100E076E8F0E066E000E096E0E0E57
:10264400086E0EC00AF00FC00BF083EC10F01BD024
:102654001AD017D00D50000AD8B4CBD7010AD8B479
:10266400D8D7030AD8B4E5D70CD00BD00C50010A44
:10267400D8B49ED7030AD8B4ABD7010AD8B4EAD7E2
:1026840000D0000E00D01200096E000E026E095038
:1026940005C003F0E2EC0FF0096E010E026E095062
:1026A4000650E00B036EE2EC0FF0096E040E026EAE
:1026B400095005C003F0E2EC0FF0096E050E026E3E
:1026C40009500650E00B0809036EE2EC0FF0096EA6
:1026D400080E026E095007C003F0E2EC0FF0096E19
:1026E400090E026E09500850E00B036EE2EC0FF085
:1026F400096E100E026E095007C003F0E2EC0FF0F1
:10270400096E110E026E09500850E00B0809036EA1
:10271400E2EC0FF0096E140E026E09500A6E000E00
:10272400036E0A50E2EC0FF0096E150E026E0950AA
:102734000A6E000E036E0A50E2EC0FF0096E180EDA
:10274400026E09500A6E000E036E0A50E2EC0FF09E
:10275400096E190E026E09500A6E000E036E0A50BD
:10276400E2EC0FF01200400EC76E210EC66EC9CF08
:1027740007F0056E000E076E05509388949C949E96
:10278400939C8B8C00D0073EFED78B9C056EC00EAD
:10279400016E0550BEEC0FF08B8C00D0073EFED7C7
:1027A40000D0056E0F0E026E0550066E850E036E88
:1027B4000650E2EC0FF0056E600E026E0550066ED8
:1027C400000E036E0650E2EC0FF0056E700E026E02
:1027D4000550066E000E036E0650E2EC0FF0056E17
:1027E400200E026E0550066E000E036E0650E2ECDB
:1027F4000FF0056E210E026E0550066E000E036E7C
:102804000650E2EC0FF0056E220E026E0550066EC5
:10281400000E036E0650E2EC0FF0056E230E026EFE
:102824000550066E000E036E0650E2EC0FF0056EC6
:10283400240E026E0550066E000E036E0650E2EC86
:102844000FF0056E250E026E0550066E000E036E27
:102854000650E2EC0FF0056E260E026E0550066E71
:10286400000E036E0650E2EC0FF0056E270E026EAA
:102874000550066E000E036E0650E2EC0FF0056E76
:102884002B0E026E0550066E030E036E0650E2EC2C
:102894000FF01200136E010E166E135011C0D9FF03
:1028A40012C0DAFFDF50720AD8B401D001D00FD0C1
:1028B40011C0D9FF12C0DAFFDF50520AD8B401D0D8
:1028C40001D005D0136E000E166E135000D016B052
:1028D40002D0219001D0218011C0D9FF12C0DAFFAB
:1028E400DF50136E5A0E135CD8B001D001D006D05D
:1028F4002182136E080E176E135006D02192136EA8
:10290400030E176E135000D0010E1124016E000E39
:102914001220026E17C003F0000E056E190E046E2D
:1029240012EC15F00009D8A401D001D003D0000E98
:1029340076D075D019C01DF01AC01EF01BC01FF050
:102944001CC020F01750136E146A010E1326000EDB
:10295400142213501124016E14501220026E156EAD
:10296400010E036E1550000E056E190E046E12EC66
:1029740015F00009D8A401D001D003D0000E4FD027
:102984004ED019C022F021B001D001D041D0136E35
:10299400000E186E135034D01850020D1750F32443
:1029A400136E000EF420146E020E1326000E142271
:1029B40013501124016E14501220026E156E020E73
:1029C400036E1550000E056E190E046E12EC15F010
:1029D4000009D8A401D001D003D0000E20D01FD00C
:1029E4001850010D060EF326000EF4221D0EF324DA
:1029F400D96E000EF420DA6E19C0DFFF182A00D059
:102A04002250185CD8A001D001D0C6D701D000D084
:102A1400000E056E1D0E046EDAEC15F000D01200E7
:102A240004C0D9FF05C0DAFF000EDE6E000EDE6EB4
:102A3400000EDE6E000EDD6EDD52DD52AFD001C041
:102A4400D9FF02C0DAFFDF50D8A401D001D003D0EF
:102A5400000EADD0ACD004C0D9FF05C0DAFF040E1F
:102A6400D890DE36DE36DE36DD36D906D906E82ED7
:102A7400F7D701C0D9FF02C0DAFF2F0EDF6401D0FF
:102A840001D026D001C0D9FF02C0DAFFDF50066EA4
:102A94003A0E065CD8B001D001D01AD001C0D9FFDB
:102AA40002C0DAFFDF50066ED00E0624076E086AF5
:102AB400FF0E082204C0D9FF05C0DAFF0750DE2646
:102AC4000850DE22000EDE22DD22DD52DD5263D00C
:102AD40001C0D9FF02C0DAFF400EDF6401D001D08B
:102AE40026D001C0D9FF02C0DAFFDF50066E470EC0
:102AF400065CD8B001D001D01AD001C0D9FF02C001
:102B0400DAFFDF50066EC90E0624076E086AFF0E50
:102B1400082204C0D9FF05C0DAFF0750DE2608509A
:102B2400DE22000EDE22DD22DD52DD5234D001C071
:102B3400D9FF02C0DAFF600EDF6401D001D026D0D5
:102B440001C0D9FF02C0DAFFDF50066E670E065CD3
:102B5400D8B001D001D01AD001C0D9FF02C0DAFF29
:102B6400DF50066EA90E0624076E086AFF0E0822BF
:102B740004C0D9FF05C0DAFF0750DE260850DE2264
:102B8400000EDE22DD22DD52DD5205D0000E0FD014
:102B94000ED001D000D0014A022A00D00306032837
:102BA400D8A401D001D04BD700D0010E00D0120020
:102BB40004EC10F00F6E20EE05F00450D9260550F9
:102BC400DA22080EDF6401D001D003D0000E2ED12A
:102BD4002DD10FB401D001D005D0066E000E106EB9
:102BE400065016D00FB801D001D005D0066E020EE3
:102BF400106E06500DD00FBC01D001D005D0066E6A
:102C0400040E106E065004D0000E10D10FD100D067
:102C14008B9C10504009016EBEEC0FF020EE04F0C6
:102C24000450D9260550DA22DF50066E06A201D0E0
:102C340001D06CD004C0D9FF05C0DAFFDECF06F0A6
:102C4400DECF07F0DECF08F0DECF09F0160E05D098
:102C5400D8900932083207320632E82EF9D70650E6
:102C6400016EBEEC0FF004C0D9FF05C0DAFFDECF61
:102C740006F0DECF07F0DECF08F0DECF09F0110E4C
:102C840005D0D8900932083207320632E82EF9D737
:102C9400030E061604C0D9FF05C0DAFFDECF0AF022
:102CA400DECF0BF0DECF0CF0DECF0DF00E0E05D034
:102CB400D8900D320C320B320A32E82EF9D70A5072
:102CC400E00B06100809016EBEEC0FF004C0D9FF3A
:102CD40005C0DAFFDECF06F0DECF07F0DECF08F066
:102CE400DECF09F007C006F008C007F009C008F0FD
:102CF400096A0650016EBEEC0FF004C0D9FF05C08E
:102D0400DAFFDF50016EBEEC0FF036D004C0D9FFFD
:102D140005C0DAFFDECF06F0DECF07F0DECF08F025
:102D2400DECF09F0040E05D0D890093208320732FC
:102D34000632E82EF9D70650016EBEEC0FF004C03F
:102D4400D9FF05C0DAFFDF50066E050E076ED89076
:102D54000636072EFCD70650016EBEEC0FF0066E49
:102D6400000E016E0650BEEC0FF0066E000E016EF2
:102D74000650BEEC0FF000D020EE04F00450D9262B
:102D84000550DA22DF50066E06A001D001D00CD027
:102D940020EE05F00450D9260550DA22DF50400910
:102DA400016EBEEC0FF02ED020EE05F00450D926B3
:102DB4000550DA22DF50016EBEEC0FF0066E000EF5
:102DC4000E6E065012D00E50010D060EF326000EA4
:102DD400F422F3500424D96EF4500520DA6EDF5047
:102DE400016EBEEC0FF00E2A00D020EE05F0045068
:102DF400D9260550DA22DF500E5CD8A001D001D0CC
:102E0400E2D700D08B8C00F08B9C106601D001D0EF
:102E140005D0066E010E106E065000D010508009C9
:102E2400016EBEEC0FF08B8C010E00D01200B5ECDD
:102E340013F0300ED36E000E7E6E000E7F6E939AEA
:102E44008A9AAAEC0FF008EC12F03D6E000E010114
:102E54000101EB6F3D5000D004EC1AF0E9EC10F0E6
:102E64004FD0C1EC10F001010101EA6F0101010131
:102E7400EA510D0AD8A401D001D01DD001010101ED
:102E8400EB51010D0101810EF324D96E0101010EF4
:102E9400F420DA6E000EDF6E0101010E396E0101BD
:102EA400810E386EB0EC1BF03D6E000E0101010185
:102EB400EB6F3D5025D001010101EA510A0AD8B453
:102EC40001D001D01DD001010101EB51010D01011F
:102ED400810EF324D96E0101010EF420DA6E010192
:102EE400EAC1DFFF630E01010101EB6101D001D0F2
:102EF40007D001010101EB2B03D002D001D000D097
:102F0400B4EC0FF00009D8A401D001D0AAD700D0A6
:102F14005250D8B401D001D0BAD082B401D001D07B
:102F2400B6D0A6D0A5D0AFEC0FF001C0E5F102C039
:102F3400E6F101010101F0A101D001D007D03D6EFD
:102F4400720E01010101E86F3D5007D03D6E740E11
:102F540001010101E86F3D5000D001010101F0A31E
:102F640001D001D00BD0200E01010101E85F3D6EBC
:102F7400080E01010101E76F3D5007D03D6E030EBD
:102F840001010101E76F3D5000D0E8C114F09DEC50
:102F940010F0ECC118F0EDC119F0EEC11AF0EFC158
:102FA4001BF0E7C11CF012EC11F001010101F15119
:102FB400186E196A1A6A1B6A3D6E010E1C6E3D502A
:102FC40012EC11F001010101F0B101D001D034D0B3
:102FD4003D6E000E01010101E96F3D5021D0010158
:102FE4000101E951010D060EF326000EF422010140
:102FF400EC0EF324D96E0101010EF420DA6EDF50D9
:103004003D6E3D50186E196A1A6A1B6A3E6E020EB6
:103014001C6E3E5012EC11F001010101E92B00D0AD
:1030240001010101F15101010101E95DD8A001D0C3
:1030340001D0D5D701D000D0010101018051D8B40D
:1030440001D001D00ED00101E5C118F00101E6C1A3
:1030540019F01A6A1B6A3D6E040E1C6E3D5012EC88
:1030640011F03D6E0D0E146E3D509DEC10F000D02D
:103074000101010E076E0101EC0E066E66EC18F0FC
:103084000009D8A401D001D04ED701D000D0000E41
:10309400F36A5262F32AF3CF3DF03D3A3D468A503B
:1030A4003D18DF0B3D188A6E80B601D001D0D4D60E
:1030B400000E646EFA0E00F0E82EFDD7FF00CCD6A9
:1030C400CBD6CAD600EF08F016EC10F0146E14AC90
:1030D40001D001D005D0086E000E136E08500DD03B
:1030E40014AE01D001D005D0086E040E136E085042
:1030F40004D0000E86D185D100D014C008F0D89039
:103104000832D8900832D8900832010E081620EE02
:1031140004F00650D9260750DA22DF500818FE0BB7
:103124000818DF6E14C008F0083A0F0E0816010ED6
:10313400081620EE04F00650D9260750DA22084675
:10314400DF500818FD0B0818DF6E8B9C1350900994
:10315400016EBEEC0FF020EE04F00650D9260750A5
:10316400DA22DF50086E08A201D001D0A5D0086E83
:10317400FF0E016E0850BEEC0FF0096E09C00AF094
:103184000B6A0C6A0D6A150ED8900A360B360C368B
:103194000D36E82EF9D706C0D9FF07C0DAFF0AC0FA
:1031A400DEFF0BC0DEFF0CC0DEFF0DC0DDFFD90665
:1031B400D906086EFF0E016E0850BEEC0FF0096EC2
:1031C40009500E6E0F6A106A116AE00E0E14086E32
:1031D400000E0F14096E000E10140A6E000E111466
:1031E4000B6E0D0ED890083609360A360B36E82ECB
:1031F400F9D706C0D9FF07C0DAFF0850DE1209501C
:10320400DE120A50DE120B50DD12DD52DD52030EC7
:103214000E14086E000E0F14096E000E10140A6EC0
:10322400000E11140B6E09C00BF008C00AF0096AF5
:10323400086A06C0D9FF07C0DAFF0850DE12095039
:10324400DE120A50DE120B50DD12DD52DD52086E22
:10325400FF0E016E0850BEEC0FF0096E09C00AF0B3
:103264000B6A0C6A0D6A0CC00DF00BC00CF00AC09E
:103274000BF00A6A06C0D9FF07C0DAFF0A50DE1253
:103284000B50DE120C50DE120D50DD12DD52DD52F9
:10329400086EFF0E016E0850BEEC0FF0096E095067
:1032A40006C0D9FF07C0DAFFDE12000EDE12DE12FE
:1032B400DD12DD52DD5247D0086EFF0E016E08505C
:1032C400BEEC0FF0096E09C00AF00B6A0C6A0D6AB5
:1032D400030ED8900A360B360C360D36E82EF9D785
:1032E40006C0D9FF07C0DAFF0AC0DEFF0BC0DEFF4D
:1032F4000CC0DEFF0DC0DDFFD906D906086EFF0E37
:10330400016E0850BEEC0FF0096E050E0A6ED890DF
:1033140009320A2EFCD7095006C0D9FF07C0DAFFCC
:10332400DE12000EDE12DE12DD12DD52DD52086EF8
:10333400FF0E016E0850BEEC0FF0086EFF0E016E1A
:103344000850BEEC0FF020EE05F00650D9260750C9
:10335400DA22086EFF0E016E0850BEEC0FF00F0B60
:10336400DF6E20EE04F00650D9260750DA22DF5033
:10337400086E08B001D001D027D0086E000E126E7E
:10338400085015D01250010D060EF326000EF4223B
:10339400F3500624D96EF4500720DA6E086EFF0E3F
:1033A400016E0850BEEC0FF0DF6E122A00D020EE42
:1033B40005F00650D9260750DA22DF50125CD8A057
:1033C40001D001D0DFD700D08B8C136601D001D09F
:1033D40005D0086E010E136E085005D0086E020E5B
:1033E400136E085000D0086E2C0E026E085013C0E5
:1033F40003F0096E000E046E095028EC10F0010E63
:1034040000D012006DEC12F062A601D001D0A5D15B
:10341400636601D001D088D1020102010041E84273
:103424003F0B0F0B0D0AD8A401D001D043D1000EDD
:1034340002010201046F000E02010201046F020185
:1034440002018051600BD8A401D001D09BD077D069
:1034540076D083C20CF082C20DF0020102018751C2
:103464000F6E0201020186510E6ED9EC12F00009B2
:10347400D8A401D001D04FD1000E02010201056F82
:10348400CC0E02010201046F46D145D182C257F02D
:10349400000E02010201056FC80E02010201046F51
:1034A4003AD182C255F0000E4E6E010E4D6E000EE2
:1034B40002010201056FC80E02010201046F2BD143
:1034C40055C088F2010E02010201056FC80E020107
:1034D4000201046F20D1000E02010201886F010E67
:1034E40002010201056FC80E02010201046F13D12B
:1034F40000D0000E02010201886F000E02010201D9
:10350400896F020E02010201056FC80E0201020159
:10351400046F01D101D000D0000E02010201056F39
:10352400C80E02010201046FF6D0000E020102016E
:10353400056FCC0E02010201046FEDD0ECD0020144
:1035440002018151000AD8B4D4D7010AD8B4E4D70F
:10355400020AD8B4E1D7060AD8B498D7030AD8B473
:1035640078D70E0AD8B4ACD7010AD8B49AD7030ACC
:10357400D8B4B1D71B0AD8B4CFD7030AD8B4B9D7B3
:10358400D4D7C9D0020102018051600B200AD8A40B
:1035940001D001D0C0D078D077D0106E000E116E5B
:1035A4001050070E116401D001D002D014D013D0F2
:1035B4001150010D0201880EF324D96E0201020E8E
:1035C400F420DA6E000EDF6E112A070E116401D0AA
:1035D40001D0EED700D0080E02010201056FC80E1B
:1035E40002010201046F97D0106E010E516E10504B
:1035F400000E02010201056FC80E02010201046FF0
:103604008AD0106E000E126E1050060E126401D095
:1036140001D002D01CD01BD01250010D3F0EF32458
:10362400D96E000EF420DA6E1250010D0201880EDC
:10363400F324E16E0201020EF420E26EDFCFE7FF15
:10364400122A060E126401D001D0E6D700D0070E6C
:1036540002010201056FC80E02010201046F5BD072
:1036640000D0000E02010201056FC80E0201020122
:10367400046F51D0000E02010201056FCC0E02014D
:103684000201046F48D047D0020102018151000AAF
:10369400D8B4E7D7010AD8B480D7210AD8B4A4D7BC
:1036A400010AD8B4AED7030AD8B4DBD7E3D733D0F2
:1036B40032D031D05150D8B401D001D02CD0106EBA
:1036C400000E136E1050060E136401D001D002D008
:1036D4001CD01BD01350010D0201800EF324D96EAF
:1036E4000201020EF420DA6E1350010D3F0EF32492
:1036F400E16E000EF420E26EDFCFE7FF132A060E20
:10370400136401D001D0E6D700D0106E000E516EC4
:10371400105001D000D0080E02010201016F800E8A
:1037240002010201006F16D06350040AD8A401D02C
:1037340001D010D05750D8B401D001D007D057C011
:103744005CFF106E000E576E105000D0AEEC11F0FE
:1037540001D000D06498629600D012003A6E070E31
:10376400000100019F6F3A50BBEF1FF0526601D079
:1037740002D0FBEF1FF0C1D0C0D03A6EFB0E056E35
:103784003A503B6EAD0E066E3B503C6E060E076E15
:103794003C506AEC10F03A6E0D0E000100019F6F70
:1037A4003A50FBEF1FF03A6EDD0E056E3A503B6E59
:1037B400AD0E066E3B503C6E060E076E3C506AEC36
:1037C40010F03A6E0D0E000100019F6F3A50FBEFAE
:1037D4001FF03A6ECB0E056E3A503B6EAD0E066E80
:1037E4003B503C6E060E076E3C506AEC10F03A6E8D
:1037F4000D0E000100019F6F3A50FBD33A6EC50EC7
:10380400056E3A503B6EAD0E066E3B503C6E060E96
:10381400076E3C506AEC10F03A6E0D0E0001000188
:103824009F6F3A50E6D33A6EC50E056E3A503B6E22
:10383400A40E066E3B503C6E040E076E3C506AECC0
:1038440010F03A6E0D0E000100019F6F3A50D1D373
:103854003A6EC20E056E3A503B6EA40E066E3B5095
:103864003C6E040E076E3C506AEC10F03A6E0D0E7E
:10387400000100019F6F3A50BCD33A6EC10E056E31
:103884003A503B6E9A0E066E3B503C6E030E076E2A
:103894003C506AEC10F03A6E0D0E000100019F6F6F
:1038A4003A50A7D33A6EC00E056E3A503B6EA30E43
:1038B400066E3B503C6E040E076E3C506AEC10F0F2
:1038C4003A6E0D0E000100019F6F3A5092D33A6E8A
:1038D400C00E056E3A503B6E9A0E066E3B503C6E1F
:1038E400030E076E3C506AEC10F03A6E0D0E0001A8
:1038F40000019F6F3A507DD37CD320EE01F0385005
:10390400D9263950DA22DF50300AD8B436D7010A22
:10391400D8B449D7030AD8B45CD7010AD8B46ED74F
:10392400070AD8B480D7010AD8B492D7030AD8B406
:10393400A4D7010AD8B4B6D70F0AD8B4C8D759D374
:1039440058D357D3526601D001D053D3010E382433
:10395400016E000E3920026E3A6E020E036E3A506A
:103964000001000E056E0001620E046E12EC15F0EB
:103974000009D8B401D001D03CD3030E3824016E21
:10398400000E3920026E3A6E020E036E3A500001A8
:10399400000E056E0001660E046E12EC15F00009AF
:1039A400D8B401D001D025D3050E3824016E000E01
:1039B4003920026E3A6E020E036E3A500001000E78
:1039C400056E00016A0E046E12EC15F00009D8B4FD
:1039D40001D001D00ED362C005F066C006F06AC003
:1039E40007F06AEC10F03A6E0D0E000100019F6FB3
:1039F4003A50FFD2FED2FDD2010E3824016E000EE1
:103A04003920026E3A6E020E036E3A500001000E27
:103A1400056E00016E0E046E12EC15F00009D8B4A8
:103A240001D001D0E6D26EC002F03DEC10F00001EE
:103A34000001606F60C036F0C9EC0FF03A6E0D0EF5
:103A4400000100019F6F3A50D4D2D3D2010E382422
:103A5400016E000E3920026E3A6E020E036E3A5069
:103A64000001000E056E0001720E046E12EC15F0DA
:103A74000009D8B401D001D0BCD2030E3824016EA1
:103A8400000E3920026E3A6E020E036E3A500001A7
:103A9400000E056E0001760E046E12EC15F000099E
:103AA400D8B401D001D0A5D272C002F076C003F020
:103AB400E2EC0FF03A6E0D0E000100019F6F3A50D8
:103AC40098D297D23A6E560E146E3A509DEC10F07E
:103AD4003A6E010E366E3A50C9EC0FF03A6E000E93
:103AE400366E3A50C9EC0FF03A6E0D0E000100012B
:103AF4009F6F3A507ED23A6E760E146E3A509DEC19
:103B040010F03A6E010E366E3A50C9EC0FF03A6E70
:103B1400030E366E3A50C9EC0FF03A6E0D0E0001EA
:103B240000019F6F3A5065D23A6E4E0E146E3A50B1
:103B34009DEC10F0FF0E186EFF0E196E000E1A6E3B
:103B4400000E1B6E3A6E040E1C6E3A5012EC11F00D
:103B54003A6E0D0E000100019F6F3A504AD2526630
:103B640001D001D046D23A6E0F0E026E3A503B6E2F
:103B7400E00E036E3B503C6E000E046E3C5028EC8D
:103B840010F0D5EC0FF0010E526E3A6E0D0E0001DE
:103B940000019F6F3A502DD22CD2526601D001D031
:103BA40028D23A6E0F0E026E3A503B6EE00E036E50
:103BB4003B503C6E400E046E3C5028EC10F0010E5D
:103BC400526E3A6E0D0E000100019F6F3A5011D2F1
:103BD40010D2526601D001D00CD23A6E0F0E026E92
:103BE4003A503B6EE00E036E3B503C6E600E046E2A
:103BF4003C5028EC10F0020E526E3A6E0D0E00018D
:103C040000019F6F3A50F5D1F4D15250D8B401D08D
:103C140001D0EFD13A6E0F0E026E3A503B6EE00EB9
:103C2400036E3B503C6E800E046E3C5028EC10F04A
:103C3400000E526E3A6E0D0E000100019F6F3A5055
:103C4400D8D1D7D102D001D000D05204D8A401D009
:103C540001D0CFD138C011F039C012F04CEC14F0BF
:103C64000009D8B401D001D0C4D138C0D9FF39C0BB
:103C7400DAFFDF503A6E5A0E3A5CD8B001D001D068
:103C840007D03A6E5A0E146E3A509DEC10F007D0DD
:103C94003A6E7A0E146E3A509DEC10F000D03A6EE3
:103CA4000D0E000100019F6F3A50A3D1A2D1A1D102
:103CB4003A6E2D0E026E3A503DEC10F000010001F8
:103CC4009E6F3A6E000E00010001616F3A500001D0
:103CD40000019EA101D001D004D000010001618542
:103CE40000D0000100019E51C00BD8B401D001D016
:103CF40004D000010001618700D0000100019E5141
:103D0400180BD8B401D001D004D000010001618B9C
:103D140000D0000100019EAB01D001D004D000010D
:103D24000001618F00D03A6E460E146E3A509DEC3D
:103D340010F061C036F0C9EC0FF03A6E0D0E0001C0
:103D440000019F6F3A5055D1010E3824016E000EC8
:103D54003920026E3A6E010E036E3A500001000ED5
:103D6400056E00017A0E046E12EC15F00009D8B449
:103D740001D001D03ED1000100017D517A117B11A7
:103D84007C11D8A401D002D0010E01D0000E010193
:103D94000101806F3A6E0D0E000100019F6F3A50D1
:103DA40028D127D1526601D001D023D1010E382465
:103DB400016E000E3920026E3A6E020E036E3A5006
:103DC4000001000E056E00017E0E046E12EC15F06B
:103DD4000009D8B401D001D00CD1030E3824016EEF
:103DE400000E3920026E3A6E020E036E3A50000144
:103DF400000E056E0001820E046E12EC15F000092F
:103E0400D8B401D001D0F5D0050E3824016E000ECF
:103E14003920026E3A6E020E036E3A500001000E13
:103E2400056E0001860E046E12EC15F00009D8B47C
:103E340001D001D0DED0070E3824016E000E3920E7
:103E4400026E3A6E020E036E3A500001000E056EC9
:103E540000018A0E046E12EC15F00009D8B401D0EA
:103E640001D0C7D07EC005F082C006F086C007F03E
:103E74008AC008F05FEC11F03A6E0D0E00010001EB
:103E84009F6F3A50B6D0B5D0B4D0526601D001D0AD
:103E9400B0D0010E3824016E000E3920026E3A6E45
:103EA400020E036E3A500001000E056E00018E0EE4
:103EB400046E12EC15F00009D8B401D001D099D0E9
:103EC400030E3824016E000E3920026E3A6E020E83
:103ED400036E3A500001000E056E0001920E046E4E
:103EE40012EC15F00009D8B401D001D082D0050E2F
:103EF4003824016E000E3920026E3A6E020E036EF3
:103F04003A500001000E056E0001960E046E12EC8C
:103F140015F00009D8B401D001D06BD0070E3824B5
:103F2400016E000E3920026E3A6E020E036E3A5094
:103F34000001000E056E00019A0E046E12EC15F0DD
:103F44000009D8B401D001D054D08EC005F092C07D
:103F540006F096C007F09AC008F046EC13F03A6EEB
:103F64000D0E000100019F6F3A5043D042D041D062
:103F740040D038C0D9FF39C0DAFFDF50430AD8B483
:103F840044D6050AD8B494D6010AD8B435D50B0A58
:103F9400D8B41FD6010AD8B478D7030AD8B4C4D584
:103FA400010AD8B4DCD51D0AD8B44FD6010AD8B456
:103FB400B8EF1BF0070AD8B448D6020AD8B482D5A1
:103FC400010AD8B443D50D0AD8B4BED6360AD8B43B
:103FD400E4D5010AD8B4E6D61F0AD8B436D6010A05
:103FE400D8B4B0D4070AD8B430D6020AD8B483D52A
:0C3FF40000D09FC014F09DEC10F01200F3
:00000001FF
